{
  "address": "0x976d8B246a1997bFc12d67eA058EAb83D22FD289",
  "abi": [
    {
      "inputs": [
        {
          "internalType": "string",
          "name": "_uri",
          "type": "string"
        }
      ],
      "stateMutability": "nonpayable",
      "type": "constructor"
    },
    {
      "anonymous": false,
      "inputs": [
        {
          "indexed": true,
          "internalType": "address",
          "name": "account",
          "type": "address"
        },
        {
          "indexed": true,
          "internalType": "address",
          "name": "operator",
          "type": "address"
        },
        {
          "indexed": false,
          "internalType": "bool",
          "name": "approved",
          "type": "bool"
        }
      ],
      "name": "ApprovalForAll",
      "type": "event"
    },
    {
      "anonymous": false,
      "inputs": [
        {
          "indexed": true,
          "internalType": "address",
          "name": "account",
          "type": "address"
        }
      ],
      "name": "OperatorAdded",
      "type": "event"
    },
    {
      "anonymous": false,
      "inputs": [
        {
          "indexed": true,
          "internalType": "address",
          "name": "account",
          "type": "address"
        }
      ],
      "name": "OperatorRemoved",
      "type": "event"
    },
    {
      "anonymous": false,
      "inputs": [
        {
          "indexed": true,
          "internalType": "address",
          "name": "previousOwner",
          "type": "address"
        },
        {
          "indexed": true,
          "internalType": "address",
          "name": "newOwner",
          "type": "address"
        }
      ],
      "name": "OwnershipTransferred",
      "type": "event"
    },
    {
      "anonymous": false,
      "inputs": [
        {
          "indexed": true,
          "internalType": "address",
          "name": "operator",
          "type": "address"
        },
        {
          "indexed": true,
          "internalType": "address",
          "name": "from",
          "type": "address"
        },
        {
          "indexed": true,
          "internalType": "address",
          "name": "to",
          "type": "address"
        },
        {
          "indexed": false,
          "internalType": "uint256[]",
          "name": "ids",
          "type": "uint256[]"
        },
        {
          "indexed": false,
          "internalType": "uint256[]",
          "name": "values",
          "type": "uint256[]"
        }
      ],
      "name": "TransferBatch",
      "type": "event"
    },
    {
      "anonymous": false,
      "inputs": [
        {
          "indexed": true,
          "internalType": "address",
          "name": "operator",
          "type": "address"
        },
        {
          "indexed": true,
          "internalType": "address",
          "name": "from",
          "type": "address"
        },
        {
          "indexed": true,
          "internalType": "address",
          "name": "to",
          "type": "address"
        },
        {
          "indexed": false,
          "internalType": "uint256",
          "name": "id",
          "type": "uint256"
        },
        {
          "indexed": false,
          "internalType": "uint256",
          "name": "value",
          "type": "uint256"
        }
      ],
      "name": "TransferSingle",
      "type": "event"
    },
    {
      "anonymous": false,
      "inputs": [
        {
          "indexed": false,
          "internalType": "string",
          "name": "value",
          "type": "string"
        },
        {
          "indexed": true,
          "internalType": "uint256",
          "name": "id",
          "type": "uint256"
        }
      ],
      "name": "URI",
      "type": "event"
    },
    {
      "inputs": [
        {
          "internalType": "address",
          "name": "account",
          "type": "address"
        }
      ],
      "name": "addOperator",
      "outputs": [],
      "stateMutability": "nonpayable",
      "type": "function"
    },
    {
      "inputs": [
        {
          "internalType": "address",
          "name": "account",
          "type": "address"
        },
        {
          "internalType": "uint256",
          "name": "id",
          "type": "uint256"
        }
      ],
      "name": "balanceOf",
      "outputs": [
        {
          "internalType": "uint256",
          "name": "",
          "type": "uint256"
        }
      ],
      "stateMutability": "view",
      "type": "function"
    },
    {
      "inputs": [
        {
          "internalType": "address[]",
          "name": "accounts",
          "type": "address[]"
        },
        {
          "internalType": "uint256[]",
          "name": "ids",
          "type": "uint256[]"
        }
      ],
      "name": "balanceOfBatch",
      "outputs": [
        {
          "internalType": "uint256[]",
          "name": "",
          "type": "uint256[]"
        }
      ],
      "stateMutability": "view",
      "type": "function"
    },
    {
      "inputs": [
        {
          "internalType": "address",
          "name": "account",
          "type": "address"
        },
        {
          "internalType": "address",
          "name": "operator",
          "type": "address"
        }
      ],
      "name": "isApprovedForAll",
      "outputs": [
        {
          "internalType": "bool",
          "name": "",
          "type": "bool"
        }
      ],
      "stateMutability": "view",
      "type": "function"
    },
    {
      "inputs": [
        {
          "internalType": "address",
          "name": "account",
          "type": "address"
        }
      ],
      "name": "isOperator",
      "outputs": [
        {
          "internalType": "bool",
          "name": "",
          "type": "bool"
        }
      ],
      "stateMutability": "view",
      "type": "function"
    },
    {
      "inputs": [
        {
          "internalType": "address",
          "name": "caller",
          "type": "address"
        },
        {
          "internalType": "uint256",
          "name": "id",
          "type": "uint256"
        },
        {
          "internalType": "uint256",
          "name": "amount",
          "type": "uint256"
        },
        {
          "internalType": "bytes",
          "name": "data",
          "type": "bytes"
        }
      ],
      "name": "mintToCaller",
      "outputs": [],
      "stateMutability": "nonpayable",
      "type": "function"
    },
    {
      "inputs": [],
      "name": "owner",
      "outputs": [
        {
          "internalType": "address",
          "name": "",
          "type": "address"
        }
      ],
      "stateMutability": "view",
      "type": "function"
    },
    {
      "inputs": [
        {
          "internalType": "address",
          "name": "account",
          "type": "address"
        }
      ],
      "name": "removeOperator",
      "outputs": [],
      "stateMutability": "nonpayable",
      "type": "function"
    },
    {
      "inputs": [],
      "name": "renounceOperator",
      "outputs": [],
      "stateMutability": "nonpayable",
      "type": "function"
    },
    {
      "inputs": [],
      "name": "renounceOwnership",
      "outputs": [],
      "stateMutability": "nonpayable",
      "type": "function"
    },
    {
      "inputs": [
        {
          "internalType": "address",
          "name": "from",
          "type": "address"
        },
        {
          "internalType": "address",
          "name": "to",
          "type": "address"
        },
        {
          "internalType": "uint256[]",
          "name": "ids",
          "type": "uint256[]"
        },
        {
          "internalType": "uint256[]",
          "name": "amounts",
          "type": "uint256[]"
        },
        {
          "internalType": "bytes",
          "name": "data",
          "type": "bytes"
        }
      ],
      "name": "safeBatchTransferFrom",
      "outputs": [],
      "stateMutability": "nonpayable",
      "type": "function"
    },
    {
      "inputs": [
        {
          "internalType": "address",
          "name": "from",
          "type": "address"
        },
        {
          "internalType": "address",
          "name": "to",
          "type": "address"
        },
        {
          "internalType": "uint256",
          "name": "id",
          "type": "uint256"
        },
        {
          "internalType": "uint256",
          "name": "amount",
          "type": "uint256"
        },
        {
          "internalType": "bytes",
          "name": "data",
          "type": "bytes"
        }
      ],
      "name": "safeTransferFrom",
      "outputs": [],
      "stateMutability": "nonpayable",
      "type": "function"
    },
    {
      "inputs": [
        {
          "internalType": "address",
          "name": "operator",
          "type": "address"
        },
        {
          "internalType": "bool",
          "name": "approved",
          "type": "bool"
        }
      ],
      "name": "setApprovalForAll",
      "outputs": [],
      "stateMutability": "nonpayable",
      "type": "function"
    },
    {
      "inputs": [
        {
          "internalType": "bytes4",
          "name": "interfaceId",
          "type": "bytes4"
        }
      ],
      "name": "supportsInterface",
      "outputs": [
        {
          "internalType": "bool",
          "name": "",
          "type": "bool"
        }
      ],
      "stateMutability": "view",
      "type": "function"
    },
    {
      "inputs": [
        {
          "internalType": "address",
          "name": "newOwner",
          "type": "address"
        }
      ],
      "name": "transferOwnership",
      "outputs": [],
      "stateMutability": "nonpayable",
      "type": "function"
    },
    {
      "inputs": [
        {
          "internalType": "uint256",
          "name": "",
          "type": "uint256"
        }
      ],
      "name": "uri",
      "outputs": [
        {
          "internalType": "string",
          "name": "",
          "type": "string"
        }
      ],
      "stateMutability": "view",
      "type": "function"
    }
  ],
  "transactionHash": "0x6c889f545296356462b3fb6aa781a078f4bc14ecdd90b21c223b2474e3a3bf42",
  "args": [
    "https://this.is.the.base-uri"
  ],
  "solcInputHash": "4cdfe39a6a6e8205ba3e4b1bf3cc0c53",
  "bytecode": "0x60806040523480156200001157600080fd5b506040516200232d3803806200232d833981810160405260208110156200003757600080fd5b81019080805160405193929190846401000000008211156200005857600080fd5b9083019060208201858111156200006e57600080fd5b82516401000000008111828201881017156200008957600080fd5b82525081516020918201929091019080838360005b83811015620000b85781810151838201526020016200009e565b50505050905090810190601f168015620000e65780820380516001836020036101000a031916815260200191505b5060405250505080600062000100620001c060201b60201c565b600080546001600160a01b0319166001600160a01b0383169081178255604051929350917f8be0079c531659141344cd1fd0a4f28419497f9722a3daafe3b4186f6b6457e0908290a3506200015c6301ffc9a760e01b620001c4565b62000167816200024c565b62000179636cdb3d1360e11b620001c4565b6200018b6303a24d0760e21b620001c4565b50620001a06200019a620001c0565b62000265565b620001b957620001b9620001b3620001c0565b62000288565b5062000473565b3390565b6001600160e01b0319808216141562000224576040805162461bcd60e51b815260206004820152601c60248201527f4552433136353a20696e76616c696420696e7465726661636520696400000000604482015290519081900360640190fd5b6001600160e01b0319166000908152600160208190526040909120805460ff19169091179055565b805162000261906004906020840190620003c7565b5050565b600062000282826005620002da60201b6200130c1790919060201c565b92915050565b620002a38160056200034360201b620013731790919060201c565b6040516001600160a01b038216907fac6fa858e9350a46cec16539926e0fde25b7629f84b5a72bffaae4df888ae86d90600090a250565b60006001600160a01b038216620003235760405162461bcd60e51b81526004018080602001828103825260228152602001806200230b6022913960400191505060405180910390fd5b506001600160a01b03166000908152602091909152604090205460ff1690565b6200034f8282620002da565b15620003a2576040805162461bcd60e51b815260206004820152601f60248201527f526f6c65733a206163636f756e7420616c72656164792068617320726f6c6500604482015290519081900360640190fd5b6001600160a01b0316600090815260209190915260409020805460ff19166001179055565b828054600181600116156101000203166002900490600052602060002090601f016020900481019282620003ff57600085556200044a565b82601f106200041a57805160ff19168380011785556200044a565b828001600101855582156200044a579182015b828111156200044a5782518255916020019190600101906200042d565b50620004589291506200045c565b5090565b5b808211156200045857600081556001016200045d565b611e8880620004836000396000f3fe608060405234801561001057600080fd5b50600436106100ff5760003560e01c8063715018a611610097578063ac8a584a11610066578063ac8a584a146106b3578063e985e9c5146106d9578063f242432a14610707578063f2fde38b146107d0576100ff565b8063715018a6146106335780638da5cb5b1461063b5780639870d7fe1461065f578063a22cb46514610685576100ff565b80632eb2c2d6116100d35780632eb2c2d6146102195780634e1273f4146103da578063659331741461054d5780636d70f7ae1461060d576100ff565b8062fdd58e1461010457806301ffc9a7146101425780630e89341c1461017d5780632ab6f8db1461020f575b600080fd5b6101306004803603604081101561011a57600080fd5b506001600160a01b0381351690602001356107f6565b60408051918252519081900360200190f35b6101696004803603602081101561015857600080fd5b50356001600160e01b031916610865565b604080519115158252519081900360200190f35b61019a6004803603602081101561019357600080fd5b5035610884565b6040805160208082528351818301528351919283929083019185019080838360005b838110156101d45781810151838201526020016101bc565b50505050905090810190601f1680156102015780820380516001836020036101000a031916815260200191505b509250505060405180910390f35b61021761091c565b005b610217600480360360a081101561022f57600080fd5b6001600160a01b038235811692602081013590911691810190606081016040820135600160201b81111561026257600080fd5b82018360208201111561027457600080fd5b803590602001918460208302840111600160201b8311171561029557600080fd5b9190808060200260200160405190810160405280939291908181526020018383602002808284376000920191909152509295949360208101935035915050600160201b8111156102e457600080fd5b8201836020820111156102f657600080fd5b803590602001918460208302840111600160201b8311171561031757600080fd5b9190808060200260200160405190810160405280939291908181526020018383602002808284376000920191909152509295949360208101935035915050600160201b81111561036657600080fd5b82018360208201111561037857600080fd5b803590602001918460018302840111600160201b8311171561039957600080fd5b91908080601f01602080910402602001604051908101604052809392919081815260200183838082843760009201919091525092955061092e945050505050565b6104fd600480360360408110156103f057600080fd5b810190602081018135600160201b81111561040a57600080fd5b82018360208201111561041c57600080fd5b803590602001918460208302840111600160201b8311171561043d57600080fd5b9190808060200260200160405190810160405280939291908181526020018383602002808284376000920191909152509295949360208101935035915050600160201b81111561048c57600080fd5b82018360208201111561049e57600080fd5b803590602001918460208302840111600160201b831117156104bf57600080fd5b919080806020026020016040519081016040528093929190818152602001838360200280828437600092019190915250929550610c31945050505050565b60408051602080825283518183015283519192839290830191858101910280838360005b83811015610539578181015183820152602001610521565b505050509050019250505060405180910390f35b6102176004803603608081101561056357600080fd5b6001600160a01b038235169160208101359160408201359190810190608081016060820135600160201b81111561059957600080fd5b8201836020820111156105ab57600080fd5b803590602001918460018302840111600160201b831117156105cc57600080fd5b91908080601f016020809104026020016040519081016040528093929190818152602001838380828437600092019190915250929550610d1d945050505050565b6101696004803603602081101561062357600080fd5b50356001600160a01b0316610d7a565b610217610d8d565b610643610e39565b604080516001600160a01b039092168252519081900360200190f35b6102176004803603602081101561067557600080fd5b50356001600160a01b0316610e49565b6102176004803603604081101561069b57600080fd5b506001600160a01b0381351690602001351515610eb7565b610217600480360360208110156106c957600080fd5b50356001600160a01b0316610fa6565b610169600480360360408110156106ef57600080fd5b506001600160a01b0381358116916020013516611011565b610217600480360360a081101561071d57600080fd5b6001600160a01b03823581169260208101359091169160408201359160608101359181019060a081016080820135600160201b81111561075c57600080fd5b82018360208201111561076e57600080fd5b803590602001918460018302840111600160201b8311171561078f57600080fd5b91908080601f01602080910402602001604051908101604052809392919081815260200183838082843760009201919091525092955061103f945050505050565b610217600480360360208110156107e657600080fd5b50356001600160a01b031661120a565b60006001600160a01b03831661083d5760405162461bcd60e51b815260040180806020018281038252602b815260200180611c26602b913960400191505060405180910390fd5b5060009081526002602090815260408083206001600160a01b03949094168352929052205490565b6001600160e01b03191660009081526001602052604090205460ff1690565b60048054604080516020601f60026000196101006001881615020190951694909404938401819004810282018101909252828152606093909290918301828280156109105780601f106108e557610100808354040283529160200191610910565b820191906000526020600020905b8154815290600101906020018083116108f357829003601f168201915b50505050509050919050565b61092c6109276113f4565b6113f8565b565b815183511461096e5760405162461bcd60e51b8152600401808060200182810382526028815260200180611e0a6028913960400191505060405180910390fd5b6001600160a01b0384166109b35760405162461bcd60e51b8152600401808060200182810382526025815260200180611cd46025913960400191505060405180910390fd5b6109bb6113f4565b6001600160a01b0316856001600160a01b031614806109e657506109e6856109e16113f4565b611011565b610a215760405162461bcd60e51b8152600401808060200182810382526032815260200180611cf96032913960400191505060405180910390fd5b6000610a2b6113f4565b9050610a3b818787878787610c29565b60005b8451811015610b41576000858281518110610a5557fe5b602002602001015190506000858381518110610a6d57fe5b60200260200101519050610ada816040518060600160405280602a8152602001611d4c602a91396002600086815260200190815260200160002060008d6001600160a01b03166001600160a01b031681526020019081526020016000205461143a9092919063ffffffff16565b60008381526002602090815260408083206001600160a01b038e811685529252808320939093558a1681522054610b1190826114d1565b60009283526002602090815260408085206001600160a01b038c1686529091529092209190915550600101610a3e565b50846001600160a01b0316866001600160a01b0316826001600160a01b03167f4a39dc06d4c0dbc64b70af90fd698a233a518aa5d07e595d983b8c0526c8f7fb8787604051808060200180602001838103835285818151815260200191508051906020019060200280838360005b83811015610bc7578181015183820152602001610baf565b50505050905001838103825284818151815260200191508051906020019060200280838360005b83811015610c06578181015183820152602001610bee565b5050505090500194505050505060405180910390a4610c29818787878787611532565b505050505050565b60608151835114610c735760405162461bcd60e51b8152600401808060200182810382526029815260200180611de16029913960400191505060405180910390fd5b6000835167ffffffffffffffff81118015610c8d57600080fd5b50604051908082528060200260200182016040528015610cb7578160200160208202803683370190505b50905060005b8451811015610d1557610cf6858281518110610cd557fe5b6020026020010151858381518110610ce957fe5b60200260200101516107f6565b828281518110610d0257fe5b6020908102919091010152600101610cbd565b509392505050565b610d2d610d286113f4565b610d7a565b610d685760405162461bcd60e51b8152600401808060200182810382526034815260200180611ca06034913960400191505060405180910390fd5b610d74848484846117b1565b50505050565b6000610d8760058361130c565b92915050565b610d956113f4565b6001600160a01b0316610da6610e39565b6001600160a01b031614610def576040805162461bcd60e51b81526020600482018190526024820152600080516020611d76833981519152604482015290519081900360640190fd5b600080546040516001600160a01b03909116907f8be0079c531659141344cd1fd0a4f28419497f9722a3daafe3b4186f6b6457e0908390a3600080546001600160a01b0319169055565b6000546001600160a01b03165b90565b610e516113f4565b6001600160a01b0316610e62610e39565b6001600160a01b031614610eab576040805162461bcd60e51b81526020600482018190526024820152600080516020611d76833981519152604482015290519081900360640190fd5b610eb4816118b9565b50565b816001600160a01b0316610ec96113f4565b6001600160a01b03161415610f0f5760405162461bcd60e51b8152600401808060200182810382526029815260200180611db86029913960400191505060405180910390fd5b8060036000610f1c6113f4565b6001600160a01b03908116825260208083019390935260409182016000908120918716808252919093529120805460ff191692151592909217909155610f606113f4565b6001600160a01b03167f17307eab39ab6107e8899845ad3d59bd9653f200f220920489ca2b5937696c318360405180821515815260200191505060405180910390a35050565b610fae6113f4565b6001600160a01b0316610fbf610e39565b6001600160a01b031614611008576040805162461bcd60e51b81526020600482018190526024820152600080516020611d76833981519152604482015290519081900360640190fd5b610eb4816113f8565b6001600160a01b03918216600090815260036020908152604080832093909416825291909152205460ff1690565b6001600160a01b0384166110845760405162461bcd60e51b8152600401808060200182810382526025815260200180611cd46025913960400191505060405180910390fd5b61108c6113f4565b6001600160a01b0316856001600160a01b031614806110b257506110b2856109e16113f4565b6110ed5760405162461bcd60e51b8152600401808060200182810382526029815260200180611c776029913960400191505060405180910390fd5b60006110f76113f4565b9050611117818787611108886118fb565b611111886118fb565b87610c29565b61115e836040518060600160405280602a8152602001611d4c602a913960008781526002602090815260408083206001600160a01b038d168452909152902054919061143a565b60008581526002602090815260408083206001600160a01b038b8116855292528083209390935587168152205461119590846114d1565b60008581526002602090815260408083206001600160a01b03808b168086529184529382902094909455805188815291820187905280518a8416938616927fc3d58168c5ae7397731d063d5bbf3d657854427343f4c083240f7aacaa2d0f6292908290030190a4610c29818787878787611940565b6112126113f4565b6001600160a01b0316611223610e39565b6001600160a01b03161461126c576040805162461bcd60e51b81526020600482018190526024820152600080516020611d76833981519152604482015290519081900360640190fd5b6001600160a01b0381166112b15760405162461bcd60e51b8152600401808060200182810382526026815260200180611c516026913960400191505060405180910390fd5b600080546040516001600160a01b03808516939216917f8be0079c531659141344cd1fd0a4f28419497f9722a3daafe3b4186f6b6457e091a3600080546001600160a01b0319166001600160a01b0392909216919091179055565b60006001600160a01b0382166113535760405162461bcd60e51b8152600401808060200182810382526022815260200180611d966022913960400191505060405180910390fd5b506001600160a01b03166000908152602091909152604090205460ff1690565b61137d828261130c565b156113cf576040805162461bcd60e51b815260206004820152601f60248201527f526f6c65733a206163636f756e7420616c72656164792068617320726f6c6500604482015290519081900360640190fd5b6001600160a01b0316600090815260209190915260409020805460ff19166001179055565b3390565b611403600582611ab1565b6040516001600160a01b038216907f80c0b871b97b595b16a7741c1b06fed0c6f6f558639f18ccbce50724325dc40d90600090a250565b600081848411156114c95760405162461bcd60e51b81526004018080602001828103825283818151815260200191508051906020019080838360005b8381101561148e578181015183820152602001611476565b50505050905090810190601f1680156114bb5780820380516001836020036101000a031916815260200191505b509250505060405180910390fd5b505050900390565b60008282018381101561152b576040805162461bcd60e51b815260206004820152601b60248201527f536166654d6174683a206164646974696f6e206f766572666c6f770000000000604482015290519081900360640190fd5b9392505050565b611544846001600160a01b0316611b18565b15610c2957836001600160a01b031663bc197c8187878686866040518663ffffffff1660e01b815260040180866001600160a01b03168152602001856001600160a01b03168152602001806020018060200180602001848103845287818151815260200191508051906020019060200280838360005b838110156115d25781810151838201526020016115ba565b50505050905001848103835286818151815260200191508051906020019060200280838360005b838110156116115781810151838201526020016115f9565b50505050905001848103825285818151815260200191508051906020019080838360005b8381101561164d578181015183820152602001611635565b50505050905090810190601f16801561167a5780820380516001836020036101000a031916815260200191505b5098505050505050505050602060405180830381600087803b15801561169f57600080fd5b505af19250505080156116c457506040513d60208110156116bf57600080fd5b505160015b611759576116d0611b24565b806116db5750611722565b60405162461bcd60e51b815260206004820181815283516024840152835184939192839260440191908501908083836000831561148e578181015183820152602001611476565b60405162461bcd60e51b8152600401808060200182810382526034815260200180611bca6034913960400191505060405180910390fd5b6001600160e01b0319811663bc197c8160e01b146117a85760405162461bcd60e51b8152600401808060200182810382526028815260200180611bfe6028913960400191505060405180910390fd5b50505050505050565b6001600160a01b0384166117f65760405162461bcd60e51b8152600401808060200182810382526021815260200180611e326021913960400191505060405180910390fd5b60006118006113f4565b905061181281600087611108886118fb565b60008481526002602090815260408083206001600160a01b038916845290915290205461183f90846114d1565b60008581526002602090815260408083206001600160a01b03808b16808652918452828520959095558151898152928301889052815190948616927fc3d58168c5ae7397731d063d5bbf3d657854427343f4c083240f7aacaa2d0f6292908290030190a46118b281600087878787611940565b5050505050565b6118c4600582611373565b6040516001600160a01b038216907fac6fa858e9350a46cec16539926e0fde25b7629f84b5a72bffaae4df888ae86d90600090a250565b6040805160018082528183019092526060916000919060208083019080368337019050509050828160008151811061192f57fe5b602090810291909101015292915050565b611952846001600160a01b0316611b18565b15610c2957836001600160a01b031663f23a6e6187878686866040518663ffffffff1660e01b815260040180866001600160a01b03168152602001856001600160a01b0316815260200184815260200183815260200180602001828103825283818151815260200191508051906020019080838360005b838110156119e15781810151838201526020016119c9565b50505050905090810190601f168015611a0e5780820380516001836020036101000a031916815260200191505b509650505050505050602060405180830381600087803b158015611a3157600080fd5b505af1925050508015611a5657506040513d6020811015611a5157600080fd5b505160015b611a62576116d0611b24565b6001600160e01b0319811663f23a6e6160e01b146117a85760405162461bcd60e51b8152600401808060200182810382526028815260200180611bfe6028913960400191505060405180910390fd5b611abb828261130c565b611af65760405162461bcd60e51b8152600401808060200182810382526021815260200180611d2b6021913960400191505060405180910390fd5b6001600160a01b0316600090815260209190915260409020805460ff19169055565b3b151590565b60e01c90565b600060443d1015611b3457610e46565b600481823e6308c379a0611b488251611b1e565b14611b5257610e46565b6040513d600319016004823e80513d67ffffffffffffffff8160248401118184111715611b825750505050610e46565b82840192508251915080821115611b9c5750505050610e46565b503d83016020828401011115611bb457505050610e46565b601f01601f191681016020016040529150509056fe455243313135353a207472616e7366657220746f206e6f6e2045524331313535526563656976657220696d706c656d656e746572455243313135353a204552433131353552656365697665722072656a656374656420746f6b656e73455243313135353a2062616c616e636520717565727920666f7220746865207a65726f20616464726573734f776e61626c653a206e6577206f776e657220697320746865207a65726f2061646472657373455243313135353a2063616c6c6572206973206e6f74206f776e6572206e6f7220617070726f7665644f70657261746f72526f6c653a2063616c6c657220646f6573206e6f74206861766520746865204f70657261746f7220726f6c65455243313135353a207472616e7366657220746f20746865207a65726f2061646472657373455243313135353a207472616e736665722063616c6c6572206973206e6f74206f776e6572206e6f7220617070726f766564526f6c65733a206163636f756e7420646f6573206e6f74206861766520726f6c65455243313135353a20696e73756666696369656e742062616c616e636520666f72207472616e736665724f776e61626c653a2063616c6c6572206973206e6f7420746865206f776e6572526f6c65733a206163636f756e7420697320746865207a65726f2061646472657373455243313135353a2073657474696e6720617070726f76616c2073746174757320666f722073656c66455243313135353a206163636f756e747320616e6420696473206c656e677468206d69736d61746368455243313135353a2069647320616e6420616d6f756e7473206c656e677468206d69736d61746368455243313135353a206d696e7420746f20746865207a65726f2061646472657373a26469706673582212209ac3230f775f64c9a79e5426239ecf65fa8a9fcd6b3e6995d596ad8f6429308264736f6c63430007060033526f6c65733a206163636f756e7420697320746865207a65726f2061646472657373",
  "devdoc": {
    "kind": "dev",
    "methods": {
      "balanceOf(address,uint256)": {
        "details": "See {IERC1155-balanceOf}. Requirements: - `account` cannot be the zero address."
      },
      "balanceOfBatch(address[],uint256[])": {
        "details": "See {IERC1155-balanceOfBatch}. Requirements: - `accounts` and `ids` must have the same length."
      },
      "isApprovedForAll(address,address)": {
        "details": "See {IERC1155-isApprovedForAll}."
      },
      "owner()": {
        "details": "Returns the address of the current owner."
      },
      "renounceOwnership()": {
        "details": "Leaves the contract without owner. It will not be possible to call `onlyOwner` functions anymore. Can only be called by the current owner. NOTE: Renouncing ownership will leave the contract without an owner, thereby removing any functionality that is only available to the owner."
      },
      "safeBatchTransferFrom(address,address,uint256[],uint256[],bytes)": {
        "details": "See {IERC1155-safeBatchTransferFrom}."
      },
      "safeTransferFrom(address,address,uint256,uint256,bytes)": {
        "details": "See {IERC1155-safeTransferFrom}."
      },
      "setApprovalForAll(address,bool)": {
        "details": "See {IERC1155-setApprovalForAll}."
      },
      "supportsInterface(bytes4)": {
        "details": "See {IERC165-supportsInterface}. Time complexity O(1), guaranteed to always use less than 30 000 gas."
      },
      "transferOwnership(address)": {
        "details": "Transfers ownership of the contract to a new account (`newOwner`). Can only be called by the current owner."
      },
      "uri(uint256)": {
        "details": "See {IERC1155MetadataURI-uri}. This implementation returns the same URI for *all* token types. It relies on the token type ID substitution mechanism https://eips.ethereum.org/EIPS/eip-1155#metadata[defined in the EIP]. Clients calling this function must replace the `\\{id\\}` substring with the actual token type ID."
      }
    },
    "version": 1
  },
  "userdoc": {
    "kind": "user",
    "methods": {},
    "version": 1
  },
  "storageLayout": {
    "storage": [
      {
        "astId": 7,
        "contract": "contracts/SampleNFT.sol:SampleNFT",
        "label": "_owner",
        "offset": 0,
        "slot": "0",
        "type": "t_address"
      },
      {
        "astId": 123,
        "contract": "contracts/SampleNFT.sol:SampleNFT",
        "label": "_supportedInterfaces",
        "offset": 0,
        "slot": "1",
        "type": "t_mapping(t_bytes4,t_bool)"
      },
      {
        "astId": 563,
        "contract": "contracts/SampleNFT.sol:SampleNFT",
        "label": "_balances",
        "offset": 0,
        "slot": "2",
        "type": "t_mapping(t_uint256,t_mapping(t_address,t_uint256))"
      },
      {
        "astId": 569,
        "contract": "contracts/SampleNFT.sol:SampleNFT",
        "label": "_operatorApprovals",
        "offset": 0,
        "slot": "3",
        "type": "t_mapping(t_address,t_mapping(t_address,t_bool))"
      },
      {
        "astId": 571,
        "contract": "contracts/SampleNFT.sol:SampleNFT",
        "label": "_uri",
        "offset": 0,
        "slot": "4",
        "type": "t_string_storage"
      },
      {
        "astId": 2638,
        "contract": "contracts/SampleNFT.sol:SampleNFT",
        "label": "_operators",
        "offset": 0,
        "slot": "5",
        "type": "t_struct(Role)2729_storage"
      }
    ],
    "types": {
      "t_address": {
        "encoding": "inplace",
        "label": "address",
        "numberOfBytes": "20"
      },
      "t_bool": {
        "encoding": "inplace",
        "label": "bool",
        "numberOfBytes": "1"
      },
      "t_bytes4": {
        "encoding": "inplace",
        "label": "bytes4",
        "numberOfBytes": "4"
      },
      "t_mapping(t_address,t_bool)": {
        "encoding": "mapping",
        "key": "t_address",
        "label": "mapping(address => bool)",
        "numberOfBytes": "32",
        "value": "t_bool"
      },
      "t_mapping(t_address,t_mapping(t_address,t_bool))": {
        "encoding": "mapping",
        "key": "t_address",
        "label": "mapping(address => mapping(address => bool))",
        "numberOfBytes": "32",
        "value": "t_mapping(t_address,t_bool)"
      },
      "t_mapping(t_address,t_uint256)": {
        "encoding": "mapping",
        "key": "t_address",
        "label": "mapping(address => uint256)",
        "numberOfBytes": "32",
        "value": "t_uint256"
      },
      "t_mapping(t_bytes4,t_bool)": {
        "encoding": "mapping",
        "key": "t_bytes4",
        "label": "mapping(bytes4 => bool)",
        "numberOfBytes": "32",
        "value": "t_bool"
      },
      "t_mapping(t_uint256,t_mapping(t_address,t_uint256))": {
        "encoding": "mapping",
        "key": "t_uint256",
        "label": "mapping(uint256 => mapping(address => uint256))",
        "numberOfBytes": "32",
        "value": "t_mapping(t_address,t_uint256)"
      },
      "t_string_storage": {
        "encoding": "bytes",
        "label": "string",
        "numberOfBytes": "32"
      },
      "t_struct(Role)2729_storage": {
        "encoding": "inplace",
        "label": "struct Roles.Role",
        "members": [
          {
            "astId": 2728,
            "contract": "contracts/SampleNFT.sol:SampleNFT",
            "label": "bearer",
            "offset": 0,
            "slot": "0",
            "type": "t_mapping(t_address,t_bool)"
          }
        ],
        "numberOfBytes": "32"
      },
      "t_uint256": {
        "encoding": "inplace",
        "label": "uint256",
        "numberOfBytes": "32"
      }
    }
  }
}