{
  "address": "0x55682F068D19Dc83127E0F2eAd762EE0F6238DD5",
  "abi": [
    {
      "inputs": [
        {
          "internalType": "string",
          "name": "_name",
          "type": "string"
        },
        {
          "internalType": "string",
          "name": "_symbol",
          "type": "string"
        }
      ],
      "stateMutability": "nonpayable",
      "type": "constructor"
    },
    {
      "anonymous": false,
      "inputs": [
        {
          "indexed": true,
          "internalType": "address",
          "name": "owner",
          "type": "address"
        },
        {
          "indexed": true,
          "internalType": "address",
          "name": "approved",
          "type": "address"
        },
        {
          "indexed": true,
          "internalType": "uint256",
          "name": "tokenId",
          "type": "uint256"
        }
      ],
      "name": "Approval",
      "type": "event"
    },
    {
      "anonymous": false,
      "inputs": [
        {
          "indexed": true,
          "internalType": "address",
          "name": "owner",
          "type": "address"
        },
        {
          "indexed": true,
          "internalType": "address",
          "name": "operator",
          "type": "address"
        },
        {
          "indexed": false,
          "internalType": "bool",
          "name": "approved",
          "type": "bool"
        }
      ],
      "name": "ApprovalForAll",
      "type": "event"
    },
    {
      "anonymous": false,
      "inputs": [
        {
          "indexed": true,
          "internalType": "address",
          "name": "previousOwner",
          "type": "address"
        },
        {
          "indexed": true,
          "internalType": "address",
          "name": "newOwner",
          "type": "address"
        }
      ],
      "name": "OwnershipTransferred",
      "type": "event"
    },
    {
      "anonymous": false,
      "inputs": [
        {
          "indexed": true,
          "internalType": "address",
          "name": "from",
          "type": "address"
        },
        {
          "indexed": true,
          "internalType": "address",
          "name": "to",
          "type": "address"
        },
        {
          "indexed": true,
          "internalType": "uint256",
          "name": "tokenId",
          "type": "uint256"
        }
      ],
      "name": "Transfer",
      "type": "event"
    },
    {
      "inputs": [
        {
          "internalType": "address",
          "name": "to",
          "type": "address"
        },
        {
          "internalType": "uint256",
          "name": "tokenId",
          "type": "uint256"
        }
      ],
      "name": "approve",
      "outputs": [],
      "stateMutability": "nonpayable",
      "type": "function"
    },
    {
      "inputs": [
        {
          "internalType": "address",
          "name": "owner",
          "type": "address"
        }
      ],
      "name": "balanceOf",
      "outputs": [
        {
          "internalType": "uint256",
          "name": "",
          "type": "uint256"
        }
      ],
      "stateMutability": "view",
      "type": "function"
    },
    {
      "inputs": [],
      "name": "baseURI",
      "outputs": [
        {
          "internalType": "string",
          "name": "",
          "type": "string"
        }
      ],
      "stateMutability": "view",
      "type": "function"
    },
    {
      "inputs": [
        {
          "internalType": "uint256",
          "name": "tokenId",
          "type": "uint256"
        }
      ],
      "name": "getApproved",
      "outputs": [
        {
          "internalType": "address",
          "name": "",
          "type": "address"
        }
      ],
      "stateMutability": "view",
      "type": "function"
    },
    {
      "inputs": [
        {
          "internalType": "address",
          "name": "owner",
          "type": "address"
        },
        {
          "internalType": "address",
          "name": "operator",
          "type": "address"
        }
      ],
      "name": "isApprovedForAll",
      "outputs": [
        {
          "internalType": "bool",
          "name": "",
          "type": "bool"
        }
      ],
      "stateMutability": "view",
      "type": "function"
    },
    {
      "inputs": [
        {
          "internalType": "address",
          "name": "caller",
          "type": "address"
        },
        {
          "internalType": "string",
          "name": "tokenURI",
          "type": "string"
        }
      ],
      "name": "mintToCaller",
      "outputs": [
        {
          "internalType": "uint256",
          "name": "",
          "type": "uint256"
        }
      ],
      "stateMutability": "nonpayable",
      "type": "function"
    },
    {
      "inputs": [],
      "name": "name",
      "outputs": [
        {
          "internalType": "string",
          "name": "",
          "type": "string"
        }
      ],
      "stateMutability": "view",
      "type": "function"
    },
    {
      "inputs": [],
      "name": "owner",
      "outputs": [
        {
          "internalType": "address",
          "name": "",
          "type": "address"
        }
      ],
      "stateMutability": "view",
      "type": "function"
    },
    {
      "inputs": [
        {
          "internalType": "uint256",
          "name": "tokenId",
          "type": "uint256"
        }
      ],
      "name": "ownerOf",
      "outputs": [
        {
          "internalType": "address",
          "name": "",
          "type": "address"
        }
      ],
      "stateMutability": "view",
      "type": "function"
    },
    {
      "inputs": [],
      "name": "renounceOwnership",
      "outputs": [],
      "stateMutability": "nonpayable",
      "type": "function"
    },
    {
      "inputs": [
        {
          "internalType": "address",
          "name": "from",
          "type": "address"
        },
        {
          "internalType": "address",
          "name": "to",
          "type": "address"
        },
        {
          "internalType": "uint256",
          "name": "tokenId",
          "type": "uint256"
        }
      ],
      "name": "safeTransferFrom",
      "outputs": [],
      "stateMutability": "nonpayable",
      "type": "function"
    },
    {
      "inputs": [
        {
          "internalType": "address",
          "name": "from",
          "type": "address"
        },
        {
          "internalType": "address",
          "name": "to",
          "type": "address"
        },
        {
          "internalType": "uint256",
          "name": "tokenId",
          "type": "uint256"
        },
        {
          "internalType": "bytes",
          "name": "_data",
          "type": "bytes"
        }
      ],
      "name": "safeTransferFrom",
      "outputs": [],
      "stateMutability": "nonpayable",
      "type": "function"
    },
    {
      "inputs": [
        {
          "internalType": "address",
          "name": "operator",
          "type": "address"
        },
        {
          "internalType": "bool",
          "name": "approved",
          "type": "bool"
        }
      ],
      "name": "setApprovalForAll",
      "outputs": [],
      "stateMutability": "nonpayable",
      "type": "function"
    },
    {
      "inputs": [
        {
          "internalType": "bytes4",
          "name": "interfaceId",
          "type": "bytes4"
        }
      ],
      "name": "supportsInterface",
      "outputs": [
        {
          "internalType": "bool",
          "name": "",
          "type": "bool"
        }
      ],
      "stateMutability": "view",
      "type": "function"
    },
    {
      "inputs": [],
      "name": "symbol",
      "outputs": [
        {
          "internalType": "string",
          "name": "",
          "type": "string"
        }
      ],
      "stateMutability": "view",
      "type": "function"
    },
    {
      "inputs": [
        {
          "internalType": "uint256",
          "name": "index",
          "type": "uint256"
        }
      ],
      "name": "tokenByIndex",
      "outputs": [
        {
          "internalType": "uint256",
          "name": "",
          "type": "uint256"
        }
      ],
      "stateMutability": "view",
      "type": "function"
    },
    {
      "inputs": [
        {
          "internalType": "address",
          "name": "owner",
          "type": "address"
        },
        {
          "internalType": "uint256",
          "name": "index",
          "type": "uint256"
        }
      ],
      "name": "tokenOfOwnerByIndex",
      "outputs": [
        {
          "internalType": "uint256",
          "name": "",
          "type": "uint256"
        }
      ],
      "stateMutability": "view",
      "type": "function"
    },
    {
      "inputs": [
        {
          "internalType": "uint256",
          "name": "tokenId",
          "type": "uint256"
        }
      ],
      "name": "tokenURI",
      "outputs": [
        {
          "internalType": "string",
          "name": "",
          "type": "string"
        }
      ],
      "stateMutability": "view",
      "type": "function"
    },
    {
      "inputs": [],
      "name": "totalSupply",
      "outputs": [
        {
          "internalType": "uint256",
          "name": "",
          "type": "uint256"
        }
      ],
      "stateMutability": "view",
      "type": "function"
    },
    {
      "inputs": [
        {
          "internalType": "address",
          "name": "from",
          "type": "address"
        },
        {
          "internalType": "address",
          "name": "to",
          "type": "address"
        },
        {
          "internalType": "uint256",
          "name": "tokenId",
          "type": "uint256"
        }
      ],
      "name": "transferFrom",
      "outputs": [],
      "stateMutability": "nonpayable",
      "type": "function"
    },
    {
      "inputs": [
        {
          "internalType": "address",
          "name": "newOwner",
          "type": "address"
        }
      ],
      "name": "transferOwnership",
      "outputs": [],
      "stateMutability": "nonpayable",
      "type": "function"
    }
  ],
  "transactionHash": "0xc0986dd1987faeb5a80389d1680caa1ed3485b21023b2afc9bb0e50fa570ad57",
  "args": [
    "Totem Elite NFT",
    "TEnft"
  ],
  "solcInputHash": "c81bd4454fe2d4dc102313f15f337758",
  "bytecode": "0x60806040523480156200001157600080fd5b506040516200237b3803806200237b833981810160405260408110156200003757600080fd5b81019080805160405193929190846401000000008211156200005857600080fd5b9083019060208201858111156200006e57600080fd5b82516401000000008111828201881017156200008957600080fd5b82525081516020918201929091019080838360005b83811015620000b85781810151838201526020016200009e565b50505050905090810190601f168015620000e65780820380516001836020036101000a031916815260200191505b50604052602001805160405193929190846401000000008211156200010a57600080fd5b9083019060208201858111156200012057600080fd5b82516401000000008111828201881017156200013b57600080fd5b82525081516020918201929091019080838360005b838110156200016a57818101518382015260200162000150565b50505050905090810190601f168015620001985780820380516001836020036101000a031916815260200191505b5060405250505081816000620001b36200027b60201b60201c565b600080546001600160a01b0319166001600160a01b0383169081178255604051929350917f8be0079c531659141344cd1fd0a4f28419497f9722a3daafe3b4186f6b6457e0908290a3506200020f6301ffc9a760e01b6200027f565b81516200022490600790602085019062000307565b5080516200023a90600890602084019062000307565b506200024d6380ac58cd60e01b6200027f565b6200025f635b5e139f60e01b6200027f565b6200027163780e9d6360e01b6200027f565b50505050620003b3565b3390565b6001600160e01b03198082161415620002df576040805162461bcd60e51b815260206004820152601c60248201527f4552433136353a20696e76616c696420696e7465726661636520696400000000604482015290519081900360640190fd5b6001600160e01b0319166000908152600160208190526040909120805460ff19169091179055565b828054600181600116156101000203166002900490600052602060002090601f0160209004810192826200033f57600085556200038a565b82601f106200035a57805160ff19168380011785556200038a565b828001600101855582156200038a579182015b828111156200038a5782518255916020019190600101906200036d565b50620003989291506200039c565b5090565b5b808211156200039857600081556001016200039d565b611fb880620003c36000396000f3fe608060405234801561001057600080fd5b50600436106101375760003560e01c80636c0360eb116100b8578063a22cb4651161007c578063a22cb4651461038d578063a8d55211146103bb578063b88d4fde14610471578063c87b56dd14610537578063e985e9c514610554578063f2fde38b1461058257610137565b80636c0360eb1461034757806370a082311461034f578063715018a6146103755780638da5cb5b1461037d57806395d89b411461038557610137565b806323b872dd116100ff57806323b872dd146102755780632f745c59146102ab57806342842e0e146102d75780634f6ccce71461030d5780636352211e1461032a57610137565b806301ffc9a71461013c57806306fdde0314610177578063081812fc146101f4578063095ea7b31461022d57806318160ddd1461025b575b600080fd5b6101636004803603602081101561015257600080fd5b50356001600160e01b0319166105a8565b604080519115158252519081900360200190f35b61017f6105cb565b6040805160208082528351818301528351919283929083019185019080838360005b838110156101b95781810151838201526020016101a1565b50505050905090810190601f1680156101e65780820380516001836020036101000a031916815260200191505b509250505060405180910390f35b6102116004803603602081101561020a57600080fd5b5035610661565b604080516001600160a01b039092168252519081900360200190f35b6102596004803603604081101561024357600080fd5b506001600160a01b0381351690602001356106c3565b005b61026361079e565b60408051918252519081900360200190f35b6102596004803603606081101561028b57600080fd5b506001600160a01b038135811691602081013590911690604001356107af565b610263600480360360408110156102c157600080fd5b506001600160a01b038135169060200135610806565b610259600480360360608110156102ed57600080fd5b506001600160a01b03813581169160208101359091169060400135610831565b6102636004803603602081101561032357600080fd5b503561084c565b6102116004803603602081101561034057600080fd5b5035610862565b61017f61088a565b6102636004803603602081101561036557600080fd5b50356001600160a01b03166108eb565b610259610953565b610211610a11565b61017f610a20565b610259600480360360408110156103a357600080fd5b506001600160a01b0381351690602001351515610a81565b610263600480360360408110156103d157600080fd5b6001600160a01b0382351691908101906040810160208201356401000000008111156103fc57600080fd5b82018360208201111561040e57600080fd5b8035906020019184600183028401116401000000008311171561043057600080fd5b91908080601f016020809104026020016040519081016040528093929190818152602001838380828437600092019190915250929550610b86945050505050565b6102596004803603608081101561048757600080fd5b6001600160a01b038235811692602081013590911691604082013591908101906080810160608201356401000000008111156104c257600080fd5b8201836020820111156104d457600080fd5b803590602001918460018302840111640100000000831117156104f657600080fd5b91908080601f016020809104026020016040519081016040528093929190818152602001838380828437600092019190915250929550610c28945050505050565b61017f6004803603602081101561054d57600080fd5b5035610c86565b6101636004803603604081101561056a57600080fd5b506001600160a01b0381358116916020013516610f07565b6102596004803603602081101561059857600080fd5b50356001600160a01b0316610f35565b6001600160e01b0319811660009081526001602052604090205460ff165b919050565b60078054604080516020601f60026000196101006001881615020190951694909404938401819004810282018101909252828152606093909290918301828280156106575780601f1061062c57610100808354040283529160200191610657565b820191906000526020600020905b81548152906001019060200180831161063a57829003601f168201915b5050505050905090565b600061066c82611049565b6106a75760405162461bcd60e51b815260040180806020018281038252602c815260200180611e81602c913960400191505060405180910390fd5b506000908152600560205260409020546001600160a01b031690565b60006106ce82610862565b9050806001600160a01b0316836001600160a01b031614156107215760405162461bcd60e51b8152600401808060200182810382526021815260200180611f316021913960400191505060405180910390fd5b806001600160a01b0316610733611056565b6001600160a01b0316148061075457506107548161074f611056565b610f07565b61078f5760405162461bcd60e51b8152600401808060200182810382526038815260200180611dd46038913960400191505060405180910390fd5b610799838361105a565b505050565b60006107aa60036110c8565b905090565b6107c06107ba611056565b826110d3565b6107fb5760405162461bcd60e51b8152600401808060200182810382526031815260200180611f526031913960400191505060405180910390fd5b610799838383611177565b6001600160a01b038216600090815260026020526040812061082890836112c3565b90505b92915050565b61079983838360405180602001604052806000815250610c28565b60008061085a6003846112cf565b509392505050565b600061082b82604051806060016040528060298152602001611e3660299139600391906112eb565b600a8054604080516020601f60026000196101006001881615020190951694909404938401819004810282018101909252828152606093909290918301828280156106575780601f1061062c57610100808354040283529160200191610657565b60006001600160a01b0382166109325760405162461bcd60e51b815260040180806020018281038252602a815260200180611e0c602a913960400191505060405180910390fd5b6001600160a01b038216600090815260026020526040902061082b906110c8565b61095b611056565b6001600160a01b031661096c610a11565b6001600160a01b0316146109c7576040805162461bcd60e51b815260206004820181905260248201527f4f776e61626c653a2063616c6c6572206973206e6f7420746865206f776e6572604482015290519081900360640190fd5b600080546040516001600160a01b03909116907f8be0079c531659141344cd1fd0a4f28419497f9722a3daafe3b4186f6b6457e0908390a3600080546001600160a01b0319169055565b6000546001600160a01b031690565b60088054604080516020601f60026000196101006001881615020190951694909404938401819004810282018101909252828152606093909290918301828280156106575780601f1061062c57610100808354040283529160200191610657565b610a89611056565b6001600160a01b0316826001600160a01b03161415610aef576040805162461bcd60e51b815260206004820152601960248201527f4552433732313a20617070726f766520746f2063616c6c657200000000000000604482015290519081900360640190fd5b8060066000610afc611056565b6001600160a01b03908116825260208083019390935260409182016000908120918716808252919093529120805460ff191692151592909217909155610b40611056565b6001600160a01b03167f17307eab39ab6107e8899845ad3d59bd9653f200f220920489ca2b5937696c318360405180821515815260200191505060405180910390a35050565b6000610b90611056565b6001600160a01b0316610ba1610a11565b6001600160a01b031614610bfc576040805162461bcd60e51b815260206004820181905260248201527f4f776e61626c653a2063616c6c6572206973206e6f7420746865206f776e6572604482015290519081900360640190fd5b610c06600b611302565b6000610c12600b61130b565b9050610c1e848261130f565b610828818461143d565b610c39610c33611056565b836110d3565b610c745760405162461bcd60e51b8152600401808060200182810382526031815260200180611f526031913960400191505060405180910390fd5b610c80848484846114a0565b50505050565b6060610c9182611049565b610ccc5760405162461bcd60e51b815260040180806020018281038252602f815260200180611f02602f913960400191505060405180910390fd5b60008281526009602090815260408083208054825160026001831615610100026000190190921691909104601f810185900485028201850190935282815292909190830182828015610d5f5780601f10610d3457610100808354040283529160200191610d5f565b820191906000526020600020905b815481529060010190602001808311610d4257829003601f168201915b505050505090506000610d7061088a565b9050805160001415610d84575090506105c6565b815115610e455780826040516020018083805190602001908083835b60208310610dbf5780518252601f199092019160209182019101610da0565b51815160209384036101000a600019018019909216911617905285519190930192850191508083835b60208310610e075780518252601f199092019160209182019101610de8565b6001836020036101000a03801982511681845116808217855250505050505090500192505050604051602081830303815290604052925050506105c6565b80610e4f856114f2565b6040516020018083805190602001908083835b60208310610e815780518252601f199092019160209182019101610e62565b51815160209384036101000a600019018019909216911617905285519190930192850191508083835b60208310610ec95780518252601f199092019160209182019101610eaa565b6001836020036101000a0380198251168184511680821785525050505050509050019250505060405160208183030381529060405292505050919050565b6001600160a01b03918216600090815260066020908152604080832093909416825291909152205460ff1690565b610f3d611056565b6001600160a01b0316610f4e610a11565b6001600160a01b031614610fa9576040805162461bcd60e51b815260206004820181905260248201527f4f776e61626c653a2063616c6c6572206973206e6f7420746865206f776e6572604482015290519081900360640190fd5b6001600160a01b038116610fee5760405162461bcd60e51b8152600401808060200182810382526026815260200180611d5e6026913960400191505060405180910390fd5b600080546040516001600160a01b03808516939216917f8be0079c531659141344cd1fd0a4f28419497f9722a3daafe3b4186f6b6457e091a3600080546001600160a01b0319166001600160a01b0392909216919091179055565b600061082b6003836115cd565b3390565b600081815260056020526040902080546001600160a01b0319166001600160a01b038416908117909155819061108f82610862565b6001600160a01b03167f8c5be1e5ebec7d5bd14f71427d1e84f3dd0314c0f7b2291e5b200ac8c7c3b92560405160405180910390a45050565b600061082b8261130b565b60006110de82611049565b6111195760405162461bcd60e51b815260040180806020018281038252602c815260200180611da8602c913960400191505060405180910390fd5b600061112483610862565b9050806001600160a01b0316846001600160a01b0316148061115f5750836001600160a01b031661115484610661565b6001600160a01b0316145b8061116f575061116f8185610f07565b949350505050565b826001600160a01b031661118a82610862565b6001600160a01b0316146111cf5760405162461bcd60e51b8152600401808060200182810382526029815260200180611ed96029913960400191505060405180910390fd5b6001600160a01b0382166112145760405162461bcd60e51b8152600401808060200182810382526024815260200180611d846024913960400191505060405180910390fd5b61121f838383610799565b61122a60008261105a565b6001600160a01b038316600090815260026020526040902061124c90826115d9565b506001600160a01b038216600090815260026020526040902061126f90826115e5565b5061127c600382846115f1565b5080826001600160a01b0316846001600160a01b03167fddf252ad1be2c89b69c2b068fc378daa952ba7f163c4a11628f55a4df523b3ef60405160405180910390a4505050565b60006108288383611607565b60008080806112de868661166b565b9097909650945050505050565b60006112f88484846116e6565b90505b9392505050565b80546001019055565b5490565b6001600160a01b03821661136a576040805162461bcd60e51b815260206004820181905260248201527f4552433732313a206d696e7420746f20746865207a65726f2061646472657373604482015290519081900360640190fd5b61137381611049565b156113c5576040805162461bcd60e51b815260206004820152601c60248201527f4552433732313a20746f6b656e20616c7265616479206d696e74656400000000604482015290519081900360640190fd5b6113d160008383610799565b6001600160a01b03821660009081526002602052604090206113f390826115e5565b50611400600382846115f1565b5060405181906001600160a01b038416906000907fddf252ad1be2c89b69c2b068fc378daa952ba7f163c4a11628f55a4df523b3ef908290a45050565b61144682611049565b6114815760405162461bcd60e51b815260040180806020018281038252602c815260200180611ead602c913960400191505060405180910390fd5b6000828152600960209081526040909120825161079992840190611c68565b6114ab848484611177565b6114b7848484846117b0565b610c805760405162461bcd60e51b8152600401808060200182810382526032815260200180611d2c6032913960400191505060405180910390fd5b60608161151757506040805180820190915260018152600360fc1b60208201526105c6565b8160005b811561152f57600101600a8204915061151b565b60008167ffffffffffffffff8111801561154857600080fd5b506040519080825280601f01601f191660200182016040528015611573576020820181803683370190505b50859350905060001982015b83156115c457600a840660300160f81b828280600190039350815181106115a257fe5b60200101906001600160f81b031916908160001a905350600a8404935061157f565b50949350505050565b60006108288383611918565b60006108288383611930565b600061082883836119f6565b60006112f884846001600160a01b038516611a40565b815460009082106116495760405162461bcd60e51b8152600401808060200182810382526022815260200180611d0a6022913960400191505060405180910390fd5b82600001828154811061165857fe5b9060005260206000200154905092915050565b8154600090819083106116af5760405162461bcd60e51b8152600401808060200182810382526022815260200180611e5f6022913960400191505060405180910390fd5b60008460000184815481106116c057fe5b906000526020600020906002020190508060000154816001015492509250509250929050565b600082815260018401602052604081205482816117815760405162461bcd60e51b81526004018080602001828103825283818151815260200191508051906020019080838360005b8381101561174657818101518382015260200161172e565b50505050905090810190601f1680156117735780820380516001836020036101000a031916815260200191505b509250505060405180910390fd5b5084600001600182038154811061179457fe5b9060005260206000209060020201600101549150509392505050565b60006117c4846001600160a01b0316611ad7565b6117d05750600161116f565b60006118de630a85bd0160e11b6117e5611056565b88878760405160240180856001600160a01b03168152602001846001600160a01b0316815260200183815260200180602001828103825283818151815260200191508051906020019080838360005b8381101561184c578181015183820152602001611834565b50505050905090810190601f1680156118795780820380516001836020036101000a031916815260200191505b5095505050505050604051602081830303815290604052906001600160e01b0319166020820180516001600160e01b038381831617835250505050604051806060016040528060328152602001611d2c603291396001600160a01b0388169190611add565b905060008180602001905160208110156118f757600080fd5b50516001600160e01b031916630a85bd0160e11b1492505050949350505050565b60009081526001919091016020526040902054151590565b600081815260018301602052604081205480156119ec578354600019808301919081019060009087908390811061196357fe5b906000526020600020015490508087600001848154811061198057fe5b6000918252602080832090910192909255828152600189810190925260409020908401905586548790806119b057fe5b6001900381819060005260206000200160009055905586600101600087815260200190815260200160002060009055600194505050505061082b565b600091505061082b565b6000611a028383611918565b611a385750815460018181018455600084815260208082209093018490558454848252828601909352604090209190915561082b565b50600061082b565b600082815260018401602052604081205480611aa55750506040805180820182528381526020808201848152865460018181018955600089815284812095516002909302909501918255915190820155865486845281880190925292909120556112fb565b82856000016001830381548110611ab857fe5b90600052602060002090600202016001018190555060009150506112fb565b3b151590565b60606112f8848460008585611af185611ad7565b611b42576040805162461bcd60e51b815260206004820152601d60248201527f416464726573733a2063616c6c20746f206e6f6e2d636f6e7472616374000000604482015290519081900360640190fd5b600080866001600160a01b031685876040518082805190602001908083835b60208310611b805780518252601f199092019160209182019101611b61565b6001836020036101000a03801982511681845116808217855250505050505090500191505060006040518083038185875af1925050503d8060008114611be2576040519150601f19603f3d011682016040523d82523d6000602084013e611be7565b606091505b5091509150611bf7828286611c02565b979650505050505050565b60608315611c115750816112fb565b825115611c215782518084602001fd5b60405162461bcd60e51b815260206004820181815284516024840152845185939192839260440191908501908083836000831561174657818101518382015260200161172e565b828054600181600116156101000203166002900490600052602060002090601f016020900481019282611c9e5760008555611ce4565b82601f10611cb757805160ff1916838001178555611ce4565b82800160010185558215611ce4579182015b82811115611ce4578251825591602001919060010190611cc9565b50611cf0929150611cf4565b5090565b5b80821115611cf05760008155600101611cf556fe456e756d657261626c655365743a20696e646578206f7574206f6620626f756e64734552433732313a207472616e7366657220746f206e6f6e20455243373231526563656976657220696d706c656d656e7465724f776e61626c653a206e6577206f776e657220697320746865207a65726f20616464726573734552433732313a207472616e7366657220746f20746865207a65726f20616464726573734552433732313a206f70657261746f7220717565727920666f72206e6f6e6578697374656e7420746f6b656e4552433732313a20617070726f76652063616c6c6572206973206e6f74206f776e6572206e6f7220617070726f76656420666f7220616c6c4552433732313a2062616c616e636520717565727920666f7220746865207a65726f20616464726573734552433732313a206f776e657220717565727920666f72206e6f6e6578697374656e7420746f6b656e456e756d657261626c654d61703a20696e646578206f7574206f6620626f756e64734552433732313a20617070726f76656420717565727920666f72206e6f6e6578697374656e7420746f6b656e4552433732314d657461646174613a2055524920736574206f66206e6f6e6578697374656e7420746f6b656e4552433732313a207472616e73666572206f6620746f6b656e2074686174206973206e6f74206f776e4552433732314d657461646174613a2055524920717565727920666f72206e6f6e6578697374656e7420746f6b656e4552433732313a20617070726f76616c20746f2063757272656e74206f776e65724552433732313a207472616e736665722063616c6c6572206973206e6f74206f776e6572206e6f7220617070726f766564a2646970667358221220531652f42b5c8af807f30988c9078f57519718bb4275219018c9c61b76aa24b164736f6c63430007060033",
  "devdoc": {
    "kind": "dev",
    "methods": {
      "approve(address,uint256)": {
        "details": "See {IERC721-approve}."
      },
      "balanceOf(address)": {
        "details": "See {IERC721-balanceOf}."
      },
      "baseURI()": {
        "details": "Returns the base URI set via {_setBaseURI}. This will be automatically added as a prefix in {tokenURI} to each token's URI, or to the token ID if no specific URI is set for that token ID."
      },
      "getApproved(uint256)": {
        "details": "See {IERC721-getApproved}."
      },
      "isApprovedForAll(address,address)": {
        "details": "See {IERC721-isApprovedForAll}."
      },
      "name()": {
        "details": "See {IERC721Metadata-name}."
      },
      "owner()": {
        "details": "Returns the address of the current owner."
      },
      "ownerOf(uint256)": {
        "details": "See {IERC721-ownerOf}."
      },
      "renounceOwnership()": {
        "details": "Leaves the contract without owner. It will not be possible to call `onlyOwner` functions anymore. Can only be called by the current owner. NOTE: Renouncing ownership will leave the contract without an owner, thereby removing any functionality that is only available to the owner."
      },
      "safeTransferFrom(address,address,uint256)": {
        "details": "See {IERC721-safeTransferFrom}."
      },
      "safeTransferFrom(address,address,uint256,bytes)": {
        "details": "See {IERC721-safeTransferFrom}."
      },
      "setApprovalForAll(address,bool)": {
        "details": "See {IERC721-setApprovalForAll}."
      },
      "supportsInterface(bytes4)": {
        "details": "See {IERC165-supportsInterface}. Time complexity O(1), guaranteed to always use less than 30 000 gas."
      },
      "symbol()": {
        "details": "See {IERC721Metadata-symbol}."
      },
      "tokenByIndex(uint256)": {
        "details": "See {IERC721Enumerable-tokenByIndex}."
      },
      "tokenOfOwnerByIndex(address,uint256)": {
        "details": "See {IERC721Enumerable-tokenOfOwnerByIndex}."
      },
      "tokenURI(uint256)": {
        "details": "See {IERC721Metadata-tokenURI}."
      },
      "totalSupply()": {
        "details": "See {IERC721Enumerable-totalSupply}."
      },
      "transferFrom(address,address,uint256)": {
        "details": "See {IERC721-transferFrom}."
      },
      "transferOwnership(address)": {
        "details": "Transfers ownership of the contract to a new account (`newOwner`). Can only be called by the current owner."
      }
    },
    "version": 1
  },
  "userdoc": {
    "kind": "user",
    "methods": {},
    "version": 1
  },
  "storageLayout": {
    "storage": [
      {
        "astId": 7,
        "contract": "contracts/EliteNFT.sol:EliteNFT",
        "label": "_owner",
        "offset": 0,
        "slot": "0",
        "type": "t_address"
      },
      {
        "astId": 123,
        "contract": "contracts/EliteNFT.sol:EliteNFT",
        "label": "_supportedInterfaces",
        "offset": 0,
        "slot": "1",
        "type": "t_mapping(t_bytes4,t_bool)"
      },
      {
        "astId": 579,
        "contract": "contracts/EliteNFT.sol:EliteNFT",
        "label": "_holderTokens",
        "offset": 0,
        "slot": "2",
        "type": "t_mapping(t_address,t_struct(UintSet)2994_storage)"
      },
      {
        "astId": 581,
        "contract": "contracts/EliteNFT.sol:EliteNFT",
        "label": "_tokenOwners",
        "offset": 0,
        "slot": "3",
        "type": "t_struct(UintToAddressMap)2371_storage"
      },
      {
        "astId": 585,
        "contract": "contracts/EliteNFT.sol:EliteNFT",
        "label": "_tokenApprovals",
        "offset": 0,
        "slot": "5",
        "type": "t_mapping(t_uint256,t_address)"
      },
      {
        "astId": 591,
        "contract": "contracts/EliteNFT.sol:EliteNFT",
        "label": "_operatorApprovals",
        "offset": 0,
        "slot": "6",
        "type": "t_mapping(t_address,t_mapping(t_address,t_bool))"
      },
      {
        "astId": 593,
        "contract": "contracts/EliteNFT.sol:EliteNFT",
        "label": "_name",
        "offset": 0,
        "slot": "7",
        "type": "t_string_storage"
      },
      {
        "astId": 595,
        "contract": "contracts/EliteNFT.sol:EliteNFT",
        "label": "_symbol",
        "offset": 0,
        "slot": "8",
        "type": "t_string_storage"
      },
      {
        "astId": 599,
        "contract": "contracts/EliteNFT.sol:EliteNFT",
        "label": "_tokenURIs",
        "offset": 0,
        "slot": "9",
        "type": "t_mapping(t_uint256,t_string_storage)"
      },
      {
        "astId": 601,
        "contract": "contracts/EliteNFT.sol:EliteNFT",
        "label": "_baseURI",
        "offset": 0,
        "slot": "10",
        "type": "t_string_storage"
      },
      {
        "astId": 3191,
        "contract": "contracts/EliteNFT.sol:EliteNFT",
        "label": "_tokenIds",
        "offset": 0,
        "slot": "11",
        "type": "t_struct(Counter)1997_storage"
      }
    ],
    "types": {
      "t_address": {
        "encoding": "inplace",
        "label": "address",
        "numberOfBytes": "20"
      },
      "t_array(t_bytes32)dyn_storage": {
        "base": "t_bytes32",
        "encoding": "dynamic_array",
        "label": "bytes32[]",
        "numberOfBytes": "32"
      },
      "t_array(t_struct(MapEntry)2045_storage)dyn_storage": {
        "base": "t_struct(MapEntry)2045_storage",
        "encoding": "dynamic_array",
        "label": "struct EnumerableMap.MapEntry[]",
        "numberOfBytes": "32"
      },
      "t_bool": {
        "encoding": "inplace",
        "label": "bool",
        "numberOfBytes": "1"
      },
      "t_bytes32": {
        "encoding": "inplace",
        "label": "bytes32",
        "numberOfBytes": "32"
      },
      "t_bytes4": {
        "encoding": "inplace",
        "label": "bytes4",
        "numberOfBytes": "4"
      },
      "t_mapping(t_address,t_bool)": {
        "encoding": "mapping",
        "key": "t_address",
        "label": "mapping(address => bool)",
        "numberOfBytes": "32",
        "value": "t_bool"
      },
      "t_mapping(t_address,t_mapping(t_address,t_bool))": {
        "encoding": "mapping",
        "key": "t_address",
        "label": "mapping(address => mapping(address => bool))",
        "numberOfBytes": "32",
        "value": "t_mapping(t_address,t_bool)"
      },
      "t_mapping(t_address,t_struct(UintSet)2994_storage)": {
        "encoding": "mapping",
        "key": "t_address",
        "label": "mapping(address => struct EnumerableSet.UintSet)",
        "numberOfBytes": "32",
        "value": "t_struct(UintSet)2994_storage"
      },
      "t_mapping(t_bytes32,t_uint256)": {
        "encoding": "mapping",
        "key": "t_bytes32",
        "label": "mapping(bytes32 => uint256)",
        "numberOfBytes": "32",
        "value": "t_uint256"
      },
      "t_mapping(t_bytes4,t_bool)": {
        "encoding": "mapping",
        "key": "t_bytes4",
        "label": "mapping(bytes4 => bool)",
        "numberOfBytes": "32",
        "value": "t_bool"
      },
      "t_mapping(t_uint256,t_address)": {
        "encoding": "mapping",
        "key": "t_uint256",
        "label": "mapping(uint256 => address)",
        "numberOfBytes": "32",
        "value": "t_address"
      },
      "t_mapping(t_uint256,t_string_storage)": {
        "encoding": "mapping",
        "key": "t_uint256",
        "label": "mapping(uint256 => string)",
        "numberOfBytes": "32",
        "value": "t_string_storage"
      },
      "t_string_storage": {
        "encoding": "bytes",
        "label": "string",
        "numberOfBytes": "32"
      },
      "t_struct(Counter)1997_storage": {
        "encoding": "inplace",
        "label": "struct Counters.Counter",
        "members": [
          {
            "astId": 1996,
            "contract": "contracts/EliteNFT.sol:EliteNFT",
            "label": "_value",
            "offset": 0,
            "slot": "0",
            "type": "t_uint256"
          }
        ],
        "numberOfBytes": "32"
      },
      "t_struct(Map)2053_storage": {
        "encoding": "inplace",
        "label": "struct EnumerableMap.Map",
        "members": [
          {
            "astId": 2048,
            "contract": "contracts/EliteNFT.sol:EliteNFT",
            "label": "_entries",
            "offset": 0,
            "slot": "0",
            "type": "t_array(t_struct(MapEntry)2045_storage)dyn_storage"
          },
          {
            "astId": 2052,
            "contract": "contracts/EliteNFT.sol:EliteNFT",
            "label": "_indexes",
            "offset": 0,
            "slot": "1",
            "type": "t_mapping(t_bytes32,t_uint256)"
          }
        ],
        "numberOfBytes": "64"
      },
      "t_struct(MapEntry)2045_storage": {
        "encoding": "inplace",
        "label": "struct EnumerableMap.MapEntry",
        "members": [
          {
            "astId": 2042,
            "contract": "contracts/EliteNFT.sol:EliteNFT",
            "label": "_key",
            "offset": 0,
            "slot": "0",
            "type": "t_bytes32"
          },
          {
            "astId": 2044,
            "contract": "contracts/EliteNFT.sol:EliteNFT",
            "label": "_value",
            "offset": 0,
            "slot": "1",
            "type": "t_bytes32"
          }
        ],
        "numberOfBytes": "64"
      },
      "t_struct(Set)2608_storage": {
        "encoding": "inplace",
        "label": "struct EnumerableSet.Set",
        "members": [
          {
            "astId": 2603,
            "contract": "contracts/EliteNFT.sol:EliteNFT",
            "label": "_values",
            "offset": 0,
            "slot": "0",
            "type": "t_array(t_bytes32)dyn_storage"
          },
          {
            "astId": 2607,
            "contract": "contracts/EliteNFT.sol:EliteNFT",
            "label": "_indexes",
            "offset": 0,
            "slot": "1",
            "type": "t_mapping(t_bytes32,t_uint256)"
          }
        ],
        "numberOfBytes": "64"
      },
      "t_struct(UintSet)2994_storage": {
        "encoding": "inplace",
        "label": "struct EnumerableSet.UintSet",
        "members": [
          {
            "astId": 2993,
            "contract": "contracts/EliteNFT.sol:EliteNFT",
            "label": "_inner",
            "offset": 0,
            "slot": "0",
            "type": "t_struct(Set)2608_storage"
          }
        ],
        "numberOfBytes": "64"
      },
      "t_struct(UintToAddressMap)2371_storage": {
        "encoding": "inplace",
        "label": "struct EnumerableMap.UintToAddressMap",
        "members": [
          {
            "astId": 2370,
            "contract": "contracts/EliteNFT.sol:EliteNFT",
            "label": "_inner",
            "offset": 0,
            "slot": "0",
            "type": "t_struct(Map)2053_storage"
          }
        ],
        "numberOfBytes": "64"
      },
      "t_uint256": {
        "encoding": "inplace",
        "label": "uint256",
        "numberOfBytes": "32"
      }
    }
  }
}