{
  "address": "0x8c922566a044E19Ec87499D92bC64882c5Ae4F80",
  "abi": [
    {
      "inputs": [
        {
          "internalType": "address",
          "name": "marketplaceAddress",
          "type": "address"
        }
      ],
      "stateMutability": "nonpayable",
      "type": "constructor"
    },
    {
      "anonymous": false,
      "inputs": [
        {
          "indexed": true,
          "internalType": "address",
          "name": "owner",
          "type": "address"
        },
        {
          "indexed": true,
          "internalType": "address",
          "name": "approved",
          "type": "address"
        },
        {
          "indexed": true,
          "internalType": "uint256",
          "name": "tokenId",
          "type": "uint256"
        }
      ],
      "name": "Approval",
      "type": "event"
    },
    {
      "anonymous": false,
      "inputs": [
        {
          "indexed": true,
          "internalType": "address",
          "name": "owner",
          "type": "address"
        },
        {
          "indexed": true,
          "internalType": "address",
          "name": "operator",
          "type": "address"
        },
        {
          "indexed": false,
          "internalType": "bool",
          "name": "approved",
          "type": "bool"
        }
      ],
      "name": "ApprovalForAll",
      "type": "event"
    },
    {
      "anonymous": false,
      "inputs": [
        {
          "indexed": true,
          "internalType": "address",
          "name": "from",
          "type": "address"
        },
        {
          "indexed": true,
          "internalType": "address",
          "name": "to",
          "type": "address"
        },
        {
          "indexed": true,
          "internalType": "uint256",
          "name": "tokenId",
          "type": "uint256"
        }
      ],
      "name": "Transfer",
      "type": "event"
    },
    {
      "inputs": [
        {
          "internalType": "address",
          "name": "to",
          "type": "address"
        },
        {
          "internalType": "uint256",
          "name": "tokenId",
          "type": "uint256"
        }
      ],
      "name": "approve",
      "outputs": [],
      "stateMutability": "nonpayable",
      "type": "function"
    },
    {
      "inputs": [
        {
          "internalType": "address",
          "name": "owner",
          "type": "address"
        }
      ],
      "name": "balanceOf",
      "outputs": [
        {
          "internalType": "uint256",
          "name": "",
          "type": "uint256"
        }
      ],
      "stateMutability": "view",
      "type": "function"
    },
    {
      "inputs": [
        {
          "internalType": "string",
          "name": "tokenURI",
          "type": "string"
        }
      ],
      "name": "createToken",
      "outputs": [
        {
          "internalType": "uint256",
          "name": "",
          "type": "uint256"
        }
      ],
      "stateMutability": "nonpayable",
      "type": "function"
    },
    {
      "inputs": [
        {
          "internalType": "string",
          "name": "tokenURI",
          "type": "string"
        }
      ],
      "name": "createTokenAndApproveMarketPlace",
      "outputs": [
        {
          "internalType": "uint256",
          "name": "",
          "type": "uint256"
        }
      ],
      "stateMutability": "nonpayable",
      "type": "function"
    },
    {
      "inputs": [
        {
          "internalType": "address",
          "name": "myAddress",
          "type": "address"
        }
      ],
      "name": "fetchMyNFTs",
      "outputs": [
        {
          "components": [
            {
              "internalType": "uint256",
              "name": "tokenId",
              "type": "uint256"
            },
            {
              "internalType": "string",
              "name": "tokenURI",
              "type": "string"
            }
          ],
          "internalType": "struct NFT.NFTItem[]",
          "name": "",
          "type": "tuple[]"
        }
      ],
      "stateMutability": "view",
      "type": "function"
    },
    {
      "inputs": [
        {
          "internalType": "uint256",
          "name": "tokenId",
          "type": "uint256"
        }
      ],
      "name": "getApproved",
      "outputs": [
        {
          "internalType": "address",
          "name": "",
          "type": "address"
        }
      ],
      "stateMutability": "view",
      "type": "function"
    },
    {
      "inputs": [
        {
          "internalType": "address",
          "name": "owner",
          "type": "address"
        },
        {
          "internalType": "address",
          "name": "operator",
          "type": "address"
        }
      ],
      "name": "isApprovedForAll",
      "outputs": [
        {
          "internalType": "bool",
          "name": "",
          "type": "bool"
        }
      ],
      "stateMutability": "view",
      "type": "function"
    },
    {
      "inputs": [],
      "name": "name",
      "outputs": [
        {
          "internalType": "string",
          "name": "",
          "type": "string"
        }
      ],
      "stateMutability": "view",
      "type": "function"
    },
    {
      "inputs": [
        {
          "internalType": "uint256",
          "name": "tokenId",
          "type": "uint256"
        }
      ],
      "name": "ownerOf",
      "outputs": [
        {
          "internalType": "address",
          "name": "",
          "type": "address"
        }
      ],
      "stateMutability": "view",
      "type": "function"
    },
    {
      "inputs": [
        {
          "internalType": "address",
          "name": "from",
          "type": "address"
        },
        {
          "internalType": "address",
          "name": "to",
          "type": "address"
        },
        {
          "internalType": "uint256",
          "name": "tokenId",
          "type": "uint256"
        }
      ],
      "name": "safeTransferFrom",
      "outputs": [],
      "stateMutability": "nonpayable",
      "type": "function"
    },
    {
      "inputs": [
        {
          "internalType": "address",
          "name": "from",
          "type": "address"
        },
        {
          "internalType": "address",
          "name": "to",
          "type": "address"
        },
        {
          "internalType": "uint256",
          "name": "tokenId",
          "type": "uint256"
        },
        {
          "internalType": "bytes",
          "name": "_data",
          "type": "bytes"
        }
      ],
      "name": "safeTransferFrom",
      "outputs": [],
      "stateMutability": "nonpayable",
      "type": "function"
    },
    {
      "inputs": [
        {
          "internalType": "address",
          "name": "operator",
          "type": "address"
        },
        {
          "internalType": "bool",
          "name": "approved",
          "type": "bool"
        }
      ],
      "name": "setApprovalForAll",
      "outputs": [],
      "stateMutability": "nonpayable",
      "type": "function"
    },
    {
      "inputs": [
        {
          "internalType": "bytes4",
          "name": "interfaceId",
          "type": "bytes4"
        }
      ],
      "name": "supportsInterface",
      "outputs": [
        {
          "internalType": "bool",
          "name": "",
          "type": "bool"
        }
      ],
      "stateMutability": "view",
      "type": "function"
    },
    {
      "inputs": [],
      "name": "symbol",
      "outputs": [
        {
          "internalType": "string",
          "name": "",
          "type": "string"
        }
      ],
      "stateMutability": "view",
      "type": "function"
    },
    {
      "inputs": [
        {
          "internalType": "uint256",
          "name": "tokenId",
          "type": "uint256"
        }
      ],
      "name": "tokenURI",
      "outputs": [
        {
          "internalType": "string",
          "name": "",
          "type": "string"
        }
      ],
      "stateMutability": "view",
      "type": "function"
    },
    {
      "inputs": [
        {
          "internalType": "address",
          "name": "to",
          "type": "address"
        },
        {
          "internalType": "uint256",
          "name": "tokenId",
          "type": "uint256"
        }
      ],
      "name": "transfer",
      "outputs": [],
      "stateMutability": "nonpayable",
      "type": "function"
    },
    {
      "inputs": [
        {
          "internalType": "address",
          "name": "from",
          "type": "address"
        },
        {
          "internalType": "address",
          "name": "to",
          "type": "address"
        },
        {
          "internalType": "uint256",
          "name": "tokenId",
          "type": "uint256"
        }
      ],
      "name": "transferFrom",
      "outputs": [],
      "stateMutability": "nonpayable",
      "type": "function"
    }
  ],
  "transactionHash": "0x010773f1f53ff645d5afb55d7cb5151806ce62ce651fe2c918af62decb789b41",
  "args": [
    "0xFF4a2ef7cE4C4f532D75c41637ab3235A1d4E777"
  ],
  "solcInputHash": "876209bac0916d866e98115d37d30b4d",
  "bytecode": "0x60806040523480156200001157600080fd5b5060405162001b7138038062001b7183398101604081905262000034916200016e565b604080518082018252601081526f4d657461766572736520546f6b656e7360801b6020808301918252835180850190945260048452631351551560e21b9084015281519192916200008891600091620000c8565b5080516200009e906001906020840190620000c8565b5050600880546001600160a01b0319166001600160a01b03939093169290921790915550620001db565b828054620000d6906200019e565b90600052602060002090601f016020900481019282620000fa576000855562000145565b82601f106200011557805160ff191683800117855562000145565b8280016001018555821562000145579182015b828111156200014557825182559160200191906001019062000128565b506200015392915062000157565b5090565b5b8082111562000153576000815560010162000158565b60006020828403121562000180578081fd5b81516001600160a01b038116811462000197578182fd5b9392505050565b600181811c90821680620001b357607f821691505b60208210811415620001d557634e487b7160e01b600052602260045260246000fd5b50919050565b61198680620001eb6000396000f3fe608060405234801561001057600080fd5b506004361061010b5760003560e01c806345576f94116100a2578063a22cb46511610071578063a22cb46514610235578063a9059cbb14610248578063b88d4fde1461025b578063c87b56dd1461026e578063e985e9c5146102815761010b565b806345576f94146101f45780636352211e1461020757806370a082311461021a57806395d89b411461022d5761010b565b806310afee1e116100de57806310afee1e1461018d5780632037fd9f146101ad57806323b872dd146101ce57806342842e0e146101e15761010b565b806301ffc9a71461011057806306fdde0314610138578063081812fc1461014d578063095ea7b314610178575b600080fd5b61012361011e3660046115c5565b6102bd565b60405190151581526020015b60405180910390f35b610140610311565b60405161012f9190611766565b61016061015b366004611643565b6103a3565b6040516001600160a01b03909116815260200161012f565b61018b61018636600461159c565b610430565b005b6101a061019b366004611462565b610546565b60405161012f91906116f3565b6101c06101bb3660046115fd565b6106d7565b60405190815260200161012f565b61018b6101dc3660046114ae565b61071f565b61018b6101ef3660046114ae565b610750565b6101c06102023660046115fd565b61076b565b610160610215366004611643565b61079c565b6101c0610228366004611462565b610813565b61014061089a565b61018b610243366004611562565b6108a9565b61018b61025636600461159c565b61097b565b61018b6102693660046114e9565b61098a565b61014061027c366004611643565b6109c2565b61012361028f36600461147c565b6001600160a01b03918216600090815260056020908152604080832093909416825291909152205460ff1690565b60006001600160e01b031982166380ac58cd60e01b14806102ee57506001600160e01b03198216635b5e139f60e01b145b8061030957506301ffc9a760e01b6001600160e01b03198316145b90505b919050565b6060600080546103209061188b565b80601f016020809104026020016040519081016040528092919081815260200182805461034c9061188b565b80156103995780601f1061036e57610100808354040283529160200191610399565b820191906000526020600020905b81548152906001019060200180831161037c57829003601f168201915b5050505050905090565b60006103ae82610b3a565b6104145760405162461bcd60e51b815260206004820152602c60248201527f4552433732313a20617070726f76656420717565727920666f72206e6f6e657860448201526b34b9ba32b73a103a37b5b2b760a11b60648201526084015b60405180910390fd5b506000908152600460205260409020546001600160a01b031690565b600061043b8261079c565b9050806001600160a01b0316836001600160a01b031614156104a95760405162461bcd60e51b815260206004820152602160248201527f4552433732313a20617070726f76616c20746f2063757272656e74206f776e656044820152603960f91b606482015260840161040b565b336001600160a01b03821614806104c557506104c5813361028f565b6105375760405162461bcd60e51b815260206004820152603860248201527f4552433732313a20617070726f76652063616c6c6572206973206e6f74206f7760448201527f6e6572206e6f7220617070726f76656420666f7220616c6c0000000000000000606482015260840161040b565b6105418383610b57565b505050565b6060600061055360075490565b905060008060005b838110156105aa576001600160a01b03861661057b61021583600161181c565b6001600160a01b031614156105985761059560018461181c565b92505b806105a2816118c6565b91505061055b565b5060008267ffffffffffffffff8111156105d457634e487b7160e01b600052604160045260246000fd5b60405190808252806020026020018201604052801561061a57816020015b6040805180820190915260008152606060208201528152602001906001900390816105f25790505b50905060005b848110156106cd576001600160a01b03871661064061021583600161181c565b6001600160a01b031614156106bb57600061065c82600161181c565b90506000610669826109c2565b90506040518060400160405280838152602001828152508486815181106106a057634e487b7160e01b600052603260045260246000fd5b60209081029190910101526106b660018661181c565b945050505b806106c5816118c6565b915050610620565b5095945050505050565b60006106e7600780546001019055565b60006106f260075490565b90506106fe3382610bc5565b6107088184610cf8565b600854610309906001600160a01b031660016108a9565b6107293382610d83565b6107455760405162461bcd60e51b815260040161040b906117cb565b610541838383610e69565b6105418383836040518060200160405280600081525061098a565b600061077b600780546001019055565b600061078660075490565b90506107923382610bc5565b6103098184610cf8565b6000818152600260205260408120546001600160a01b0316806103095760405162461bcd60e51b815260206004820152602960248201527f4552433732313a206f776e657220717565727920666f72206e6f6e657869737460448201526832b73a103a37b5b2b760b91b606482015260840161040b565b60006001600160a01b03821661087e5760405162461bcd60e51b815260206004820152602a60248201527f4552433732313a2062616c616e636520717565727920666f7220746865207a65604482015269726f206164647265737360b01b606482015260840161040b565b506001600160a01b031660009081526003602052604090205490565b6060600180546103209061188b565b6001600160a01b0382163314156109025760405162461bcd60e51b815260206004820152601960248201527f4552433732313a20617070726f766520746f2063616c6c657200000000000000604482015260640161040b565b3360008181526005602090815260408083206001600160a01b0387168085529252909120805460ff1916841515179055906001600160a01b03167f17307eab39ab6107e8899845ad3d59bd9653f200f220920489ca2b5937696c318360405161096f911515815260200190565b60405180910390a35050565b610986338383610750565b5050565b6109943383610d83565b6109b05760405162461bcd60e51b815260040161040b906117cb565b6109bc84848484611009565b50505050565b60606109cd82610b3a565b610a335760405162461bcd60e51b815260206004820152603160248201527f45524337323155524953746f726167653a2055524920717565727920666f72206044820152703737b732bc34b9ba32b73a103a37b5b2b760791b606482015260840161040b565b60008281526006602052604081208054610a4c9061188b565b80601f0160208091040260200160405190810160405280929190818152602001828054610a789061188b565b8015610ac55780601f10610a9a57610100808354040283529160200191610ac5565b820191906000526020600020905b815481529060010190602001808311610aa857829003601f168201915b505050505090506000610ae360408051602081019091526000815290565b9050805160001415610af75750905061030c565b815115610b29578082604051602001610b11929190611687565b6040516020818303038152906040529250505061030c565b610b328461103c565b949350505050565b6000908152600260205260409020546001600160a01b0316151590565b600081815260046020526040902080546001600160a01b0319166001600160a01b0384169081179091558190610b8c8261079c565b6001600160a01b03167f8c5be1e5ebec7d5bd14f71427d1e84f3dd0314c0f7b2291e5b200ac8c7c3b92560405160405180910390a45050565b6001600160a01b038216610c1b5760405162461bcd60e51b815260206004820181905260248201527f4552433732313a206d696e7420746f20746865207a65726f2061646472657373604482015260640161040b565b610c2481610b3a565b15610c715760405162461bcd60e51b815260206004820152601c60248201527f4552433732313a20746f6b656e20616c7265616479206d696e74656400000000604482015260640161040b565b6001600160a01b0382166000908152600360205260408120805460019290610c9a90849061181c565b909155505060008181526002602052604080822080546001600160a01b0319166001600160a01b03861690811790915590518392907fddf252ad1be2c89b69c2b068fc378daa952ba7f163c4a11628f55a4df523b3ef908290a45050565b610d0182610b3a565b610d645760405162461bcd60e51b815260206004820152602e60248201527f45524337323155524953746f726167653a2055524920736574206f66206e6f6e60448201526d32bc34b9ba32b73a103a37b5b2b760911b606482015260840161040b565b600082815260066020908152604090912082516105419284019061133c565b6000610d8e82610b3a565b610def5760405162461bcd60e51b815260206004820152602c60248201527f4552433732313a206f70657261746f7220717565727920666f72206e6f6e657860448201526b34b9ba32b73a103a37b5b2b760a11b606482015260840161040b565b6000610dfa8361079c565b9050806001600160a01b0316846001600160a01b03161480610e355750836001600160a01b0316610e2a846103a3565b6001600160a01b0316145b80610b3257506001600160a01b0380821660009081526005602090815260408083209388168352929052205460ff16610b32565b826001600160a01b0316610e7c8261079c565b6001600160a01b031614610ee45760405162461bcd60e51b815260206004820152602960248201527f4552433732313a207472616e73666572206f6620746f6b656e2074686174206960448201526839903737ba1037bbb760b91b606482015260840161040b565b6001600160a01b038216610f465760405162461bcd60e51b8152602060048201526024808201527f4552433732313a207472616e7366657220746f20746865207a65726f206164646044820152637265737360e01b606482015260840161040b565b610f51600082610b57565b6001600160a01b0383166000908152600360205260408120805460019290610f7a908490611848565b90915550506001600160a01b0382166000908152600360205260408120805460019290610fa890849061181c565b909155505060008181526002602052604080822080546001600160a01b0319166001600160a01b0386811691821790925591518493918716917fddf252ad1be2c89b69c2b068fc378daa952ba7f163c4a11628f55a4df523b3ef91a4505050565b611014848484610e69565b61102084848484611114565b6109bc5760405162461bcd60e51b815260040161040b90611779565b606061104782610b3a565b6110ab5760405162461bcd60e51b815260206004820152602f60248201527f4552433732314d657461646174613a2055524920717565727920666f72206e6f60448201526e3732bc34b9ba32b73a103a37b5b2b760891b606482015260840161040b565b60006110c260408051602081019091526000815290565b905060008151116110e2576040518060200160405280600081525061110d565b806110ec84611221565b6040516020016110fd929190611687565b6040516020818303038152906040525b9392505050565b60006001600160a01b0384163b1561121657604051630a85bd0160e11b81526001600160a01b0385169063150b7a02906111589033908990889088906004016116b6565b602060405180830381600087803b15801561117257600080fd5b505af19250505080156111a2575060408051601f3d908101601f1916820190925261119f918101906115e1565b60015b6111fc573d8080156111d0576040519150601f19603f3d011682016040523d82523d6000602084013e6111d5565b606091505b5080516111f45760405162461bcd60e51b815260040161040b90611779565b805181602001fd5b6001600160e01b031916630a85bd0160e11b149050610b32565b506001949350505050565b60608161124657506040805180820190915260018152600360fc1b602082015261030c565b8160005b8115611270578061125a816118c6565b91506112699050600a83611834565b915061124a565b60008167ffffffffffffffff81111561129957634e487b7160e01b600052604160045260246000fd5b6040519080825280601f01601f1916602001820160405280156112c3576020820181803683370190505b5090505b8415610b32576112d8600183611848565b91506112e5600a866118e1565b6112f090603061181c565b60f81b81838151811061131357634e487b7160e01b600052603260045260246000fd5b60200101906001600160f81b031916908160001a905350611335600a86611834565b94506112c7565b8280546113489061188b565b90600052602060002090601f01602090048101928261136a57600085556113b0565b82601f1061138357805160ff19168380011785556113b0565b828001600101855582156113b0579182015b828111156113b0578251825591602001919060010190611395565b506113bc9291506113c0565b5090565b5b808211156113bc57600081556001016113c1565b600067ffffffffffffffff808411156113f0576113f0611921565b604051601f8501601f19908116603f0116810190828211818310171561141857611418611921565b8160405280935085815286868601111561143157600080fd5b858560208301376000602087830101525050509392505050565b80356001600160a01b038116811461030c57600080fd5b600060208284031215611473578081fd5b61110d8261144b565b6000806040838503121561148e578081fd5b6114978361144b565b91506114a56020840161144b565b90509250929050565b6000806000606084860312156114c2578081fd5b6114cb8461144b565b92506114d96020850161144b565b9150604084013590509250925092565b600080600080608085870312156114fe578081fd5b6115078561144b565b93506115156020860161144b565b925060408501359150606085013567ffffffffffffffff811115611537578182fd5b8501601f81018713611547578182fd5b611556878235602084016113d5565b91505092959194509250565b60008060408385031215611574578182fd5b61157d8361144b565b915060208301358015158114611591578182fd5b809150509250929050565b600080604083850312156115ae578182fd5b6115b78361144b565b946020939093013593505050565b6000602082840312156115d6578081fd5b813561110d81611937565b6000602082840312156115f2578081fd5b815161110d81611937565b60006020828403121561160e578081fd5b813567ffffffffffffffff811115611624578182fd5b8201601f81018413611634578182fd5b610b32848235602084016113d5565b600060208284031215611654578081fd5b5035919050565b6000815180845261167381602086016020860161185f565b601f01601f19169290920160200192915050565b6000835161169981846020880161185f565b8351908301906116ad81836020880161185f565b01949350505050565b6001600160a01b03858116825284166020820152604081018390526080606082018190526000906116e99083018461165b565b9695505050505050565b60006020808301818452808551808352604092508286019150828160051b870101848801865b8381101561175857888303603f190185528151805184528701518784018790526117458785018261165b565b9588019593505090860190600101611719565b509098975050505050505050565b60006020825261110d602083018461165b565b60208082526032908201527f4552433732313a207472616e7366657220746f206e6f6e20455243373231526560408201527131b2b4bb32b91034b6b83632b6b2b73a32b960711b606082015260800190565b60208082526031908201527f4552433732313a207472616e736665722063616c6c6572206973206e6f74206f6040820152701ddb995c881b9bdc88185c1c1c9bdd9959607a1b606082015260800190565b6000821982111561182f5761182f6118f5565b500190565b6000826118435761184361190b565b500490565b60008282101561185a5761185a6118f5565b500390565b60005b8381101561187a578181015183820152602001611862565b838111156109bc5750506000910152565b600181811c9082168061189f57607f821691505b602082108114156118c057634e487b7160e01b600052602260045260246000fd5b50919050565b60006000198214156118da576118da6118f5565b5060010190565b6000826118f0576118f061190b565b500690565b634e487b7160e01b600052601160045260246000fd5b634e487b7160e01b600052601260045260246000fd5b634e487b7160e01b600052604160045260246000fd5b6001600160e01b03198116811461194d57600080fd5b5056fea26469706673582212207c0ac4b37039b487edcc0c97b97e71912ff742950396a9cff452e17b6a89e86664736f6c63430008030033",
  "devdoc": {
    "kind": "dev",
    "methods": {
      "approve(address,uint256)": {
        "details": "See {IERC721-approve}."
      },
      "balanceOf(address)": {
        "details": "See {IERC721-balanceOf}."
      },
      "getApproved(uint256)": {
        "details": "See {IERC721-getApproved}."
      },
      "isApprovedForAll(address,address)": {
        "details": "See {IERC721-isApprovedForAll}."
      },
      "name()": {
        "details": "See {IERC721Metadata-name}."
      },
      "ownerOf(uint256)": {
        "details": "See {IERC721-ownerOf}."
      },
      "safeTransferFrom(address,address,uint256)": {
        "details": "See {IERC721-safeTransferFrom}."
      },
      "safeTransferFrom(address,address,uint256,bytes)": {
        "details": "See {IERC721-safeTransferFrom}."
      },
      "setApprovalForAll(address,bool)": {
        "details": "See {IERC721-setApprovalForAll}."
      },
      "supportsInterface(bytes4)": {
        "details": "See {IERC165-supportsInterface}."
      },
      "symbol()": {
        "details": "See {IERC721Metadata-symbol}."
      },
      "tokenURI(uint256)": {
        "details": "See {IERC721Metadata-tokenURI}."
      },
      "transferFrom(address,address,uint256)": {
        "details": "See {IERC721-transferFrom}."
      }
    },
    "version": 1
  },
  "userdoc": {
    "kind": "user",
    "methods": {},
    "version": 1
  },
  "storageLayout": {
    "storage": [
      {
        "astId": 818,
        "contract": "contracts/NFT.sol:NFT",
        "label": "_name",
        "offset": 0,
        "slot": "0",
        "type": "t_string_storage"
      },
      {
        "astId": 820,
        "contract": "contracts/NFT.sol:NFT",
        "label": "_symbol",
        "offset": 0,
        "slot": "1",
        "type": "t_string_storage"
      },
      {
        "astId": 824,
        "contract": "contracts/NFT.sol:NFT",
        "label": "_owners",
        "offset": 0,
        "slot": "2",
        "type": "t_mapping(t_uint256,t_address)"
      },
      {
        "astId": 828,
        "contract": "contracts/NFT.sol:NFT",
        "label": "_balances",
        "offset": 0,
        "slot": "3",
        "type": "t_mapping(t_address,t_uint256)"
      },
      {
        "astId": 832,
        "contract": "contracts/NFT.sol:NFT",
        "label": "_tokenApprovals",
        "offset": 0,
        "slot": "4",
        "type": "t_mapping(t_uint256,t_address)"
      },
      {
        "astId": 838,
        "contract": "contracts/NFT.sol:NFT",
        "label": "_operatorApprovals",
        "offset": 0,
        "slot": "5",
        "type": "t_mapping(t_address,t_mapping(t_address,t_bool))"
      },
      {
        "astId": 1755,
        "contract": "contracts/NFT.sol:NFT",
        "label": "_tokenURIs",
        "offset": 0,
        "slot": "6",
        "type": "t_mapping(t_uint256,t_string_storage)"
      },
      {
        "astId": 2856,
        "contract": "contracts/NFT.sol:NFT",
        "label": "_tokenIds",
        "offset": 0,
        "slot": "7",
        "type": "t_struct(Counter)2222_storage"
      },
      {
        "astId": 2858,
        "contract": "contracts/NFT.sol:NFT",
        "label": "contractAddress",
        "offset": 0,
        "slot": "8",
        "type": "t_address"
      }
    ],
    "types": {
      "t_address": {
        "encoding": "inplace",
        "label": "address",
        "numberOfBytes": "20"
      },
      "t_bool": {
        "encoding": "inplace",
        "label": "bool",
        "numberOfBytes": "1"
      },
      "t_mapping(t_address,t_bool)": {
        "encoding": "mapping",
        "key": "t_address",
        "label": "mapping(address => bool)",
        "numberOfBytes": "32",
        "value": "t_bool"
      },
      "t_mapping(t_address,t_mapping(t_address,t_bool))": {
        "encoding": "mapping",
        "key": "t_address",
        "label": "mapping(address => mapping(address => bool))",
        "numberOfBytes": "32",
        "value": "t_mapping(t_address,t_bool)"
      },
      "t_mapping(t_address,t_uint256)": {
        "encoding": "mapping",
        "key": "t_address",
        "label": "mapping(address => uint256)",
        "numberOfBytes": "32",
        "value": "t_uint256"
      },
      "t_mapping(t_uint256,t_address)": {
        "encoding": "mapping",
        "key": "t_uint256",
        "label": "mapping(uint256 => address)",
        "numberOfBytes": "32",
        "value": "t_address"
      },
      "t_mapping(t_uint256,t_string_storage)": {
        "encoding": "mapping",
        "key": "t_uint256",
        "label": "mapping(uint256 => string)",
        "numberOfBytes": "32",
        "value": "t_string_storage"
      },
      "t_string_storage": {
        "encoding": "bytes",
        "label": "string",
        "numberOfBytes": "32"
      },
      "t_struct(Counter)2222_storage": {
        "encoding": "inplace",
        "label": "struct Counters.Counter",
        "members": [
          {
            "astId": 2221,
            "contract": "contracts/NFT.sol:NFT",
            "label": "_value",
            "offset": 0,
            "slot": "0",
            "type": "t_uint256"
          }
        ],
        "numberOfBytes": "32"
      },
      "t_uint256": {
        "encoding": "inplace",
        "label": "uint256",
        "numberOfBytes": "32"
      }
    }
  }
}