{
  "address": "0x615B539814d3989674A68065166feb00f3AF5957",
  "abi": [
    {
      "inputs": [
        {
          "internalType": "address",
          "name": "marketplaceAddress",
          "type": "address"
        }
      ],
      "stateMutability": "nonpayable",
      "type": "constructor"
    },
    {
      "anonymous": false,
      "inputs": [
        {
          "indexed": true,
          "internalType": "address",
          "name": "owner",
          "type": "address"
        },
        {
          "indexed": true,
          "internalType": "address",
          "name": "approved",
          "type": "address"
        },
        {
          "indexed": true,
          "internalType": "uint256",
          "name": "tokenId",
          "type": "uint256"
        }
      ],
      "name": "Approval",
      "type": "event"
    },
    {
      "anonymous": false,
      "inputs": [
        {
          "indexed": true,
          "internalType": "address",
          "name": "owner",
          "type": "address"
        },
        {
          "indexed": true,
          "internalType": "address",
          "name": "operator",
          "type": "address"
        },
        {
          "indexed": false,
          "internalType": "bool",
          "name": "approved",
          "type": "bool"
        }
      ],
      "name": "ApprovalForAll",
      "type": "event"
    },
    {
      "anonymous": false,
      "inputs": [
        {
          "indexed": true,
          "internalType": "address",
          "name": "from",
          "type": "address"
        },
        {
          "indexed": true,
          "internalType": "address",
          "name": "to",
          "type": "address"
        },
        {
          "indexed": true,
          "internalType": "uint256",
          "name": "tokenId",
          "type": "uint256"
        }
      ],
      "name": "Transfer",
      "type": "event"
    },
    {
      "inputs": [
        {
          "internalType": "address",
          "name": "to",
          "type": "address"
        },
        {
          "internalType": "uint256",
          "name": "tokenId",
          "type": "uint256"
        }
      ],
      "name": "approve",
      "outputs": [],
      "stateMutability": "nonpayable",
      "type": "function"
    },
    {
      "inputs": [
        {
          "internalType": "address",
          "name": "owner",
          "type": "address"
        }
      ],
      "name": "balanceOf",
      "outputs": [
        {
          "internalType": "uint256",
          "name": "",
          "type": "uint256"
        }
      ],
      "stateMutability": "view",
      "type": "function"
    },
    {
      "inputs": [
        {
          "internalType": "string",
          "name": "tokenURI",
          "type": "string"
        }
      ],
      "name": "createToken",
      "outputs": [
        {
          "internalType": "uint256",
          "name": "",
          "type": "uint256"
        }
      ],
      "stateMutability": "nonpayable",
      "type": "function"
    },
    {
      "inputs": [
        {
          "internalType": "string",
          "name": "tokenURI",
          "type": "string"
        }
      ],
      "name": "createTokenAndApproveMarketPlace",
      "outputs": [
        {
          "internalType": "uint256",
          "name": "",
          "type": "uint256"
        }
      ],
      "stateMutability": "nonpayable",
      "type": "function"
    },
    {
      "inputs": [],
      "name": "fetchMyNFTs",
      "outputs": [
        {
          "internalType": "string[]",
          "name": "",
          "type": "string[]"
        }
      ],
      "stateMutability": "view",
      "type": "function"
    },
    {
      "inputs": [
        {
          "internalType": "uint256",
          "name": "tokenId",
          "type": "uint256"
        }
      ],
      "name": "getApproved",
      "outputs": [
        {
          "internalType": "address",
          "name": "",
          "type": "address"
        }
      ],
      "stateMutability": "view",
      "type": "function"
    },
    {
      "inputs": [
        {
          "internalType": "address",
          "name": "owner",
          "type": "address"
        },
        {
          "internalType": "address",
          "name": "operator",
          "type": "address"
        }
      ],
      "name": "isApprovedForAll",
      "outputs": [
        {
          "internalType": "bool",
          "name": "",
          "type": "bool"
        }
      ],
      "stateMutability": "view",
      "type": "function"
    },
    {
      "inputs": [],
      "name": "name",
      "outputs": [
        {
          "internalType": "string",
          "name": "",
          "type": "string"
        }
      ],
      "stateMutability": "view",
      "type": "function"
    },
    {
      "inputs": [
        {
          "internalType": "uint256",
          "name": "tokenId",
          "type": "uint256"
        }
      ],
      "name": "ownerOf",
      "outputs": [
        {
          "internalType": "address",
          "name": "",
          "type": "address"
        }
      ],
      "stateMutability": "view",
      "type": "function"
    },
    {
      "inputs": [
        {
          "internalType": "address",
          "name": "from",
          "type": "address"
        },
        {
          "internalType": "address",
          "name": "to",
          "type": "address"
        },
        {
          "internalType": "uint256",
          "name": "tokenId",
          "type": "uint256"
        }
      ],
      "name": "safeTransferFrom",
      "outputs": [],
      "stateMutability": "nonpayable",
      "type": "function"
    },
    {
      "inputs": [
        {
          "internalType": "address",
          "name": "from",
          "type": "address"
        },
        {
          "internalType": "address",
          "name": "to",
          "type": "address"
        },
        {
          "internalType": "uint256",
          "name": "tokenId",
          "type": "uint256"
        },
        {
          "internalType": "bytes",
          "name": "_data",
          "type": "bytes"
        }
      ],
      "name": "safeTransferFrom",
      "outputs": [],
      "stateMutability": "nonpayable",
      "type": "function"
    },
    {
      "inputs": [
        {
          "internalType": "address",
          "name": "operator",
          "type": "address"
        },
        {
          "internalType": "bool",
          "name": "approved",
          "type": "bool"
        }
      ],
      "name": "setApprovalForAll",
      "outputs": [],
      "stateMutability": "nonpayable",
      "type": "function"
    },
    {
      "inputs": [
        {
          "internalType": "bytes4",
          "name": "interfaceId",
          "type": "bytes4"
        }
      ],
      "name": "supportsInterface",
      "outputs": [
        {
          "internalType": "bool",
          "name": "",
          "type": "bool"
        }
      ],
      "stateMutability": "view",
      "type": "function"
    },
    {
      "inputs": [],
      "name": "symbol",
      "outputs": [
        {
          "internalType": "string",
          "name": "",
          "type": "string"
        }
      ],
      "stateMutability": "view",
      "type": "function"
    },
    {
      "inputs": [
        {
          "internalType": "uint256",
          "name": "tokenId",
          "type": "uint256"
        }
      ],
      "name": "tokenURI",
      "outputs": [
        {
          "internalType": "string",
          "name": "",
          "type": "string"
        }
      ],
      "stateMutability": "view",
      "type": "function"
    },
    {
      "inputs": [
        {
          "internalType": "address",
          "name": "to",
          "type": "address"
        },
        {
          "internalType": "uint256",
          "name": "tokenId",
          "type": "uint256"
        }
      ],
      "name": "transfer",
      "outputs": [],
      "stateMutability": "nonpayable",
      "type": "function"
    },
    {
      "inputs": [
        {
          "internalType": "address",
          "name": "from",
          "type": "address"
        },
        {
          "internalType": "address",
          "name": "to",
          "type": "address"
        },
        {
          "internalType": "uint256",
          "name": "tokenId",
          "type": "uint256"
        }
      ],
      "name": "transferFrom",
      "outputs": [],
      "stateMutability": "nonpayable",
      "type": "function"
    }
  ],
  "transactionHash": "0xb61987a2d389c60ddee8cfb35196fccc42b62eff659dd355f3cdbd38f5c7a26b",
  "args": [
    "0x7E55d57e9a6837fd8BC803bc0AbD018B006F6Cc2"
  ],
  "solcInputHash": "90ee9504e79eedba4ab10f9b1d374c40",
  "bytecode": "0x60806040523480156200001157600080fd5b5060405162001b1a38038062001b1a83398101604081905262000034916200016e565b604080518082018252601081526f4d657461766572736520546f6b656e7360801b6020808301918252835180850190945260048452631351551560e21b9084015281519192916200008891600091620000c8565b5080516200009e906001906020840190620000c8565b5050600880546001600160a01b0319166001600160a01b03939093169290921790915550620001db565b828054620000d6906200019e565b90600052602060002090601f016020900481019282620000fa576000855562000145565b82601f106200011557805160ff191683800117855562000145565b8280016001018555821562000145579182015b828111156200014557825182559160200191906001019062000128565b506200015392915062000157565b5090565b5b8082111562000153576000815560010162000158565b60006020828403121562000180578081fd5b81516001600160a01b038116811462000197578182fd5b9392505050565b600181811c90821680620001b357607f821691505b60208210811415620001d557634e487b7160e01b600052602260045260246000fd5b50919050565b61192f80620001eb6000396000f3fe608060405234801561001057600080fd5b506004361061010b5760003560e01c806345576f94116100a2578063a22cb46511610071578063a22cb4651461022a578063a9059cbb1461023d578063b88d4fde14610250578063c87b56dd14610263578063e985e9c5146102765761010b565b806345576f94146101e95780636352211e146101fc57806370a082311461020f57806395d89b41146102225761010b565b8063202e3740116100de578063202e37401461018d5780632037fd9f146101a257806323b872dd146101c357806342842e0e146101d65761010b565b806301ffc9a71461011057806306fdde0314610138578063081812fc1461014d578063095ea7b314610178575b600080fd5b61012361011e366004611580565b6102b2565b60405190151581526020015b60405180910390f35b610140610306565b60405161012f919061170f565b61016061015b3660046115fe565b610398565b6040516001600160a01b03909116815260200161012f565b61018b610186366004611557565b610425565b005b61019561053b565b60405161012f91906116ae565b6101b56101b03660046115b8565b610692565b60405190815260200161012f565b61018b6101d1366004611469565b6106da565b61018b6101e4366004611469565b61070b565b6101b56101f73660046115b8565b610726565b61016061020a3660046115fe565b610757565b6101b561021d36600461141d565b6107ce565b610140610855565b61018b61023836600461151d565b610864565b61018b61024b366004611557565b610936565b61018b61025e3660046114a4565b610945565b6101406102713660046115fe565b61097d565b610123610284366004611437565b6001600160a01b03918216600090815260056020908152604080832093909416825291909152205460ff1690565b60006001600160e01b031982166380ac58cd60e01b14806102e357506001600160e01b03198216635b5e139f60e01b145b806102fe57506301ffc9a760e01b6001600160e01b03198316145b90505b919050565b60606000805461031590611834565b80601f016020809104026020016040519081016040528092919081815260200182805461034190611834565b801561038e5780601f106103635761010080835404028352916020019161038e565b820191906000526020600020905b81548152906001019060200180831161037157829003601f168201915b5050505050905090565b60006103a382610af5565b6104095760405162461bcd60e51b815260206004820152602c60248201527f4552433732313a20617070726f76656420717565727920666f72206e6f6e657860448201526b34b9ba32b73a103a37b5b2b760a11b60648201526084015b60405180910390fd5b506000908152600460205260409020546001600160a01b031690565b600061043082610757565b9050806001600160a01b0316836001600160a01b0316141561049e5760405162461bcd60e51b815260206004820152602160248201527f4552433732313a20617070726f76616c20746f2063757272656e74206f776e656044820152603960f91b6064820152608401610400565b336001600160a01b03821614806104ba57506104ba8133610284565b61052c5760405162461bcd60e51b815260206004820152603860248201527f4552433732313a20617070726f76652063616c6c6572206973206e6f74206f7760448201527f6e6572206e6f7220617070726f76656420666f7220616c6c00000000000000006064820152608401610400565b6105368383610b12565b505050565b6060600061054860075490565b905060008060005b83811015610596573361056761020a8360016117c5565b6001600160a01b03161415610584576105816001846117c5565b92505b8061058e8161186f565b915050610550565b5060008267ffffffffffffffff8111156105c057634e487b7160e01b600052604160045260246000fd5b6040519080825280602002602001820160405280156105f357816020015b60608152602001906001900390816105de5790505b50905060005b84811015610689573361061061020a8360016117c5565b6001600160a01b0316141561067757600061062c8260016117c5565b905060006106398261097d565b90508084868151811061065c57634e487b7160e01b600052603260045260246000fd5b60209081029190910101526106726001866117c5565b945050505b806106818161186f565b9150506105f9565b50935050505090565b60006106a2600780546001019055565b60006106ad60075490565b90506106b93382610b80565b6106c38184610cb3565b6008546102fe906001600160a01b03166001610864565b6106e43382610d3e565b6107005760405162461bcd60e51b815260040161040090611774565b610536838383610e24565b61053683838360405180602001604052806000815250610945565b6000610736600780546001019055565b600061074160075490565b905061074d3382610b80565b6102fe8184610cb3565b6000818152600260205260408120546001600160a01b0316806102fe5760405162461bcd60e51b815260206004820152602960248201527f4552433732313a206f776e657220717565727920666f72206e6f6e657869737460448201526832b73a103a37b5b2b760b91b6064820152608401610400565b60006001600160a01b0382166108395760405162461bcd60e51b815260206004820152602a60248201527f4552433732313a2062616c616e636520717565727920666f7220746865207a65604482015269726f206164647265737360b01b6064820152608401610400565b506001600160a01b031660009081526003602052604090205490565b60606001805461031590611834565b6001600160a01b0382163314156108bd5760405162461bcd60e51b815260206004820152601960248201527f4552433732313a20617070726f766520746f2063616c6c6572000000000000006044820152606401610400565b3360008181526005602090815260408083206001600160a01b0387168085529252909120805460ff1916841515179055906001600160a01b03167f17307eab39ab6107e8899845ad3d59bd9653f200f220920489ca2b5937696c318360405161092a911515815260200190565b60405180910390a35050565b61094133838361070b565b5050565b61094f3383610d3e565b61096b5760405162461bcd60e51b815260040161040090611774565b61097784848484610fc4565b50505050565b606061098882610af5565b6109ee5760405162461bcd60e51b815260206004820152603160248201527f45524337323155524953746f726167653a2055524920717565727920666f72206044820152703737b732bc34b9ba32b73a103a37b5b2b760791b6064820152608401610400565b60008281526006602052604081208054610a0790611834565b80601f0160208091040260200160405190810160405280929190818152602001828054610a3390611834565b8015610a805780601f10610a5557610100808354040283529160200191610a80565b820191906000526020600020905b815481529060010190602001808311610a6357829003601f168201915b505050505090506000610a9e60408051602081019091526000815290565b9050805160001415610ab257509050610301565b815115610ae4578082604051602001610acc929190611642565b60405160208183030381529060405292505050610301565b610aed84610ff7565b949350505050565b6000908152600260205260409020546001600160a01b0316151590565b600081815260046020526040902080546001600160a01b0319166001600160a01b0384169081179091558190610b4782610757565b6001600160a01b03167f8c5be1e5ebec7d5bd14f71427d1e84f3dd0314c0f7b2291e5b200ac8c7c3b92560405160405180910390a45050565b6001600160a01b038216610bd65760405162461bcd60e51b815260206004820181905260248201527f4552433732313a206d696e7420746f20746865207a65726f20616464726573736044820152606401610400565b610bdf81610af5565b15610c2c5760405162461bcd60e51b815260206004820152601c60248201527f4552433732313a20746f6b656e20616c7265616479206d696e746564000000006044820152606401610400565b6001600160a01b0382166000908152600360205260408120805460019290610c559084906117c5565b909155505060008181526002602052604080822080546001600160a01b0319166001600160a01b03861690811790915590518392907fddf252ad1be2c89b69c2b068fc378daa952ba7f163c4a11628f55a4df523b3ef908290a45050565b610cbc82610af5565b610d1f5760405162461bcd60e51b815260206004820152602e60248201527f45524337323155524953746f726167653a2055524920736574206f66206e6f6e60448201526d32bc34b9ba32b73a103a37b5b2b760911b6064820152608401610400565b60008281526006602090815260409091208251610536928401906112f7565b6000610d4982610af5565b610daa5760405162461bcd60e51b815260206004820152602c60248201527f4552433732313a206f70657261746f7220717565727920666f72206e6f6e657860448201526b34b9ba32b73a103a37b5b2b760a11b6064820152608401610400565b6000610db583610757565b9050806001600160a01b0316846001600160a01b03161480610df05750836001600160a01b0316610de584610398565b6001600160a01b0316145b80610aed57506001600160a01b0380821660009081526005602090815260408083209388168352929052205460ff16610aed565b826001600160a01b0316610e3782610757565b6001600160a01b031614610e9f5760405162461bcd60e51b815260206004820152602960248201527f4552433732313a207472616e73666572206f6620746f6b656e2074686174206960448201526839903737ba1037bbb760b91b6064820152608401610400565b6001600160a01b038216610f015760405162461bcd60e51b8152602060048201526024808201527f4552433732313a207472616e7366657220746f20746865207a65726f206164646044820152637265737360e01b6064820152608401610400565b610f0c600082610b12565b6001600160a01b0383166000908152600360205260408120805460019290610f359084906117f1565b90915550506001600160a01b0382166000908152600360205260408120805460019290610f639084906117c5565b909155505060008181526002602052604080822080546001600160a01b0319166001600160a01b0386811691821790925591518493918716917fddf252ad1be2c89b69c2b068fc378daa952ba7f163c4a11628f55a4df523b3ef91a4505050565b610fcf848484610e24565b610fdb848484846110cf565b6109775760405162461bcd60e51b815260040161040090611722565b606061100282610af5565b6110665760405162461bcd60e51b815260206004820152602f60248201527f4552433732314d657461646174613a2055524920717565727920666f72206e6f60448201526e3732bc34b9ba32b73a103a37b5b2b760891b6064820152608401610400565b600061107d60408051602081019091526000815290565b9050600081511161109d57604051806020016040528060008152506110c8565b806110a7846111dc565b6040516020016110b8929190611642565b6040516020818303038152906040525b9392505050565b60006001600160a01b0384163b156111d157604051630a85bd0160e11b81526001600160a01b0385169063150b7a0290611113903390899088908890600401611671565b602060405180830381600087803b15801561112d57600080fd5b505af192505050801561115d575060408051601f3d908101601f1916820190925261115a9181019061159c565b60015b6111b7573d80801561118b576040519150601f19603f3d011682016040523d82523d6000602084013e611190565b606091505b5080516111af5760405162461bcd60e51b815260040161040090611722565b805181602001fd5b6001600160e01b031916630a85bd0160e11b149050610aed565b506001949350505050565b60608161120157506040805180820190915260018152600360fc1b6020820152610301565b8160005b811561122b57806112158161186f565b91506112249050600a836117dd565b9150611205565b60008167ffffffffffffffff81111561125457634e487b7160e01b600052604160045260246000fd5b6040519080825280601f01601f19166020018201604052801561127e576020820181803683370190505b5090505b8415610aed576112936001836117f1565b91506112a0600a8661188a565b6112ab9060306117c5565b60f81b8183815181106112ce57634e487b7160e01b600052603260045260246000fd5b60200101906001600160f81b031916908160001a9053506112f0600a866117dd565b9450611282565b82805461130390611834565b90600052602060002090601f016020900481019282611325576000855561136b565b82601f1061133e57805160ff191683800117855561136b565b8280016001018555821561136b579182015b8281111561136b578251825591602001919060010190611350565b5061137792915061137b565b5090565b5b80821115611377576000815560010161137c565b600067ffffffffffffffff808411156113ab576113ab6118ca565b604051601f8501601f19908116603f011681019082821181831017156113d3576113d36118ca565b816040528093508581528686860111156113ec57600080fd5b858560208301376000602087830101525050509392505050565b80356001600160a01b038116811461030157600080fd5b60006020828403121561142e578081fd5b6110c882611406565b60008060408385031215611449578081fd5b61145283611406565b915061146060208401611406565b90509250929050565b60008060006060848603121561147d578081fd5b61148684611406565b925061149460208501611406565b9150604084013590509250925092565b600080600080608085870312156114b9578081fd5b6114c285611406565b93506114d060208601611406565b925060408501359150606085013567ffffffffffffffff8111156114f2578182fd5b8501601f81018713611502578182fd5b61151187823560208401611390565b91505092959194509250565b6000806040838503121561152f578182fd5b61153883611406565b91506020830135801515811461154c578182fd5b809150509250929050565b60008060408385031215611569578182fd5b61157283611406565b946020939093013593505050565b600060208284031215611591578081fd5b81356110c8816118e0565b6000602082840312156115ad578081fd5b81516110c8816118e0565b6000602082840312156115c9578081fd5b813567ffffffffffffffff8111156115df578182fd5b8201601f810184136115ef578182fd5b610aed84823560208401611390565b60006020828403121561160f578081fd5b5035919050565b6000815180845261162e816020860160208601611808565b601f01601f19169290920160200192915050565b60008351611654818460208801611808565b835190830190611668818360208801611808565b01949350505050565b6001600160a01b03858116825284166020820152604081018390526080606082018190526000906116a490830184611616565b9695505050505050565b6000602080830181845280855180835260408601915060408160051b8701019250838701855b8281101561170257603f198886030184526116f0858351611616565b945092850192908501906001016116d4565b5092979650505050505050565b6000602082526110c86020830184611616565b60208082526032908201527f4552433732313a207472616e7366657220746f206e6f6e20455243373231526560408201527131b2b4bb32b91034b6b83632b6b2b73a32b960711b606082015260800190565b60208082526031908201527f4552433732313a207472616e736665722063616c6c6572206973206e6f74206f6040820152701ddb995c881b9bdc88185c1c1c9bdd9959607a1b606082015260800190565b600082198211156117d8576117d861189e565b500190565b6000826117ec576117ec6118b4565b500490565b6000828210156118035761180361189e565b500390565b60005b8381101561182357818101518382015260200161180b565b838111156109775750506000910152565b600181811c9082168061184857607f821691505b6020821081141561186957634e487b7160e01b600052602260045260246000fd5b50919050565b60006000198214156118835761188361189e565b5060010190565b600082611899576118996118b4565b500690565b634e487b7160e01b600052601160045260246000fd5b634e487b7160e01b600052601260045260246000fd5b634e487b7160e01b600052604160045260246000fd5b6001600160e01b0319811681146118f657600080fd5b5056fea264697066735822122014fc76c178790db19b7ac690841e976cd933225cc260b4a23c10ee2464601f7664736f6c63430008030033",
  "devdoc": {
    "kind": "dev",
    "methods": {
      "approve(address,uint256)": {
        "details": "See {IERC721-approve}."
      },
      "balanceOf(address)": {
        "details": "See {IERC721-balanceOf}."
      },
      "getApproved(uint256)": {
        "details": "See {IERC721-getApproved}."
      },
      "isApprovedForAll(address,address)": {
        "details": "See {IERC721-isApprovedForAll}."
      },
      "name()": {
        "details": "See {IERC721Metadata-name}."
      },
      "ownerOf(uint256)": {
        "details": "See {IERC721-ownerOf}."
      },
      "safeTransferFrom(address,address,uint256)": {
        "details": "See {IERC721-safeTransferFrom}."
      },
      "safeTransferFrom(address,address,uint256,bytes)": {
        "details": "See {IERC721-safeTransferFrom}."
      },
      "setApprovalForAll(address,bool)": {
        "details": "See {IERC721-setApprovalForAll}."
      },
      "supportsInterface(bytes4)": {
        "details": "See {IERC165-supportsInterface}."
      },
      "symbol()": {
        "details": "See {IERC721Metadata-symbol}."
      },
      "tokenURI(uint256)": {
        "details": "See {IERC721Metadata-tokenURI}."
      },
      "transferFrom(address,address,uint256)": {
        "details": "See {IERC721-transferFrom}."
      }
    },
    "version": 1
  },
  "userdoc": {
    "kind": "user",
    "methods": {},
    "version": 1
  },
  "storageLayout": {
    "storage": [
      {
        "astId": 818,
        "contract": "contracts/NFT.sol:NFT",
        "label": "_name",
        "offset": 0,
        "slot": "0",
        "type": "t_string_storage"
      },
      {
        "astId": 820,
        "contract": "contracts/NFT.sol:NFT",
        "label": "_symbol",
        "offset": 0,
        "slot": "1",
        "type": "t_string_storage"
      },
      {
        "astId": 824,
        "contract": "contracts/NFT.sol:NFT",
        "label": "_owners",
        "offset": 0,
        "slot": "2",
        "type": "t_mapping(t_uint256,t_address)"
      },
      {
        "astId": 828,
        "contract": "contracts/NFT.sol:NFT",
        "label": "_balances",
        "offset": 0,
        "slot": "3",
        "type": "t_mapping(t_address,t_uint256)"
      },
      {
        "astId": 832,
        "contract": "contracts/NFT.sol:NFT",
        "label": "_tokenApprovals",
        "offset": 0,
        "slot": "4",
        "type": "t_mapping(t_uint256,t_address)"
      },
      {
        "astId": 838,
        "contract": "contracts/NFT.sol:NFT",
        "label": "_operatorApprovals",
        "offset": 0,
        "slot": "5",
        "type": "t_mapping(t_address,t_mapping(t_address,t_bool))"
      },
      {
        "astId": 1755,
        "contract": "contracts/NFT.sol:NFT",
        "label": "_tokenURIs",
        "offset": 0,
        "slot": "6",
        "type": "t_mapping(t_uint256,t_string_storage)"
      },
      {
        "astId": 2856,
        "contract": "contracts/NFT.sol:NFT",
        "label": "_tokenIds",
        "offset": 0,
        "slot": "7",
        "type": "t_struct(Counter)2222_storage"
      },
      {
        "astId": 2858,
        "contract": "contracts/NFT.sol:NFT",
        "label": "contractAddress",
        "offset": 0,
        "slot": "8",
        "type": "t_address"
      }
    ],
    "types": {
      "t_address": {
        "encoding": "inplace",
        "label": "address",
        "numberOfBytes": "20"
      },
      "t_bool": {
        "encoding": "inplace",
        "label": "bool",
        "numberOfBytes": "1"
      },
      "t_mapping(t_address,t_bool)": {
        "encoding": "mapping",
        "key": "t_address",
        "label": "mapping(address => bool)",
        "numberOfBytes": "32",
        "value": "t_bool"
      },
      "t_mapping(t_address,t_mapping(t_address,t_bool))": {
        "encoding": "mapping",
        "key": "t_address",
        "label": "mapping(address => mapping(address => bool))",
        "numberOfBytes": "32",
        "value": "t_mapping(t_address,t_bool)"
      },
      "t_mapping(t_address,t_uint256)": {
        "encoding": "mapping",
        "key": "t_address",
        "label": "mapping(address => uint256)",
        "numberOfBytes": "32",
        "value": "t_uint256"
      },
      "t_mapping(t_uint256,t_address)": {
        "encoding": "mapping",
        "key": "t_uint256",
        "label": "mapping(uint256 => address)",
        "numberOfBytes": "32",
        "value": "t_address"
      },
      "t_mapping(t_uint256,t_string_storage)": {
        "encoding": "mapping",
        "key": "t_uint256",
        "label": "mapping(uint256 => string)",
        "numberOfBytes": "32",
        "value": "t_string_storage"
      },
      "t_string_storage": {
        "encoding": "bytes",
        "label": "string",
        "numberOfBytes": "32"
      },
      "t_struct(Counter)2222_storage": {
        "encoding": "inplace",
        "label": "struct Counters.Counter",
        "members": [
          {
            "astId": 2221,
            "contract": "contracts/NFT.sol:NFT",
            "label": "_value",
            "offset": 0,
            "slot": "0",
            "type": "t_uint256"
          }
        ],
        "numberOfBytes": "32"
      },
      "t_uint256": {
        "encoding": "inplace",
        "label": "uint256",
        "numberOfBytes": "32"
      }
    }
  }
}