{
  "address": "0x97C9fC0E10c43D966a32AaFb4442577Bf8e7f11B",
  "abi": [
    {
      "inputs": [
        {
          "internalType": "address",
          "name": "marketplaceAddress",
          "type": "address"
        }
      ],
      "stateMutability": "nonpayable",
      "type": "constructor"
    },
    {
      "anonymous": false,
      "inputs": [
        {
          "indexed": true,
          "internalType": "address",
          "name": "owner",
          "type": "address"
        },
        {
          "indexed": true,
          "internalType": "address",
          "name": "approved",
          "type": "address"
        },
        {
          "indexed": true,
          "internalType": "uint256",
          "name": "tokenId",
          "type": "uint256"
        }
      ],
      "name": "Approval",
      "type": "event"
    },
    {
      "anonymous": false,
      "inputs": [
        {
          "indexed": true,
          "internalType": "address",
          "name": "owner",
          "type": "address"
        },
        {
          "indexed": true,
          "internalType": "address",
          "name": "operator",
          "type": "address"
        },
        {
          "indexed": false,
          "internalType": "bool",
          "name": "approved",
          "type": "bool"
        }
      ],
      "name": "ApprovalForAll",
      "type": "event"
    },
    {
      "anonymous": false,
      "inputs": [
        {
          "indexed": true,
          "internalType": "address",
          "name": "from",
          "type": "address"
        },
        {
          "indexed": true,
          "internalType": "address",
          "name": "to",
          "type": "address"
        },
        {
          "indexed": true,
          "internalType": "uint256",
          "name": "tokenId",
          "type": "uint256"
        }
      ],
      "name": "Transfer",
      "type": "event"
    },
    {
      "inputs": [
        {
          "internalType": "address",
          "name": "to",
          "type": "address"
        },
        {
          "internalType": "uint256",
          "name": "tokenId",
          "type": "uint256"
        }
      ],
      "name": "approve",
      "outputs": [],
      "stateMutability": "nonpayable",
      "type": "function"
    },
    {
      "inputs": [
        {
          "internalType": "address",
          "name": "owner",
          "type": "address"
        }
      ],
      "name": "balanceOf",
      "outputs": [
        {
          "internalType": "uint256",
          "name": "",
          "type": "uint256"
        }
      ],
      "stateMutability": "view",
      "type": "function"
    },
    {
      "inputs": [
        {
          "internalType": "string",
          "name": "tokenURI",
          "type": "string"
        }
      ],
      "name": "createToken",
      "outputs": [
        {
          "internalType": "uint256",
          "name": "",
          "type": "uint256"
        }
      ],
      "stateMutability": "nonpayable",
      "type": "function"
    },
    {
      "inputs": [
        {
          "internalType": "string",
          "name": "tokenURI",
          "type": "string"
        }
      ],
      "name": "createTokenAndApproveMarketPlace",
      "outputs": [
        {
          "internalType": "uint256",
          "name": "",
          "type": "uint256"
        }
      ],
      "stateMutability": "nonpayable",
      "type": "function"
    },
    {
      "inputs": [],
      "name": "fetchMyNFTs",
      "outputs": [
        {
          "components": [
            {
              "internalType": "uint256",
              "name": "tokenId",
              "type": "uint256"
            },
            {
              "internalType": "string",
              "name": "tokenURI",
              "type": "string"
            }
          ],
          "internalType": "struct NFT.NFTItem[]",
          "name": "",
          "type": "tuple[]"
        }
      ],
      "stateMutability": "view",
      "type": "function"
    },
    {
      "inputs": [
        {
          "internalType": "uint256",
          "name": "tokenId",
          "type": "uint256"
        }
      ],
      "name": "getApproved",
      "outputs": [
        {
          "internalType": "address",
          "name": "",
          "type": "address"
        }
      ],
      "stateMutability": "view",
      "type": "function"
    },
    {
      "inputs": [
        {
          "internalType": "address",
          "name": "owner",
          "type": "address"
        },
        {
          "internalType": "address",
          "name": "operator",
          "type": "address"
        }
      ],
      "name": "isApprovedForAll",
      "outputs": [
        {
          "internalType": "bool",
          "name": "",
          "type": "bool"
        }
      ],
      "stateMutability": "view",
      "type": "function"
    },
    {
      "inputs": [],
      "name": "name",
      "outputs": [
        {
          "internalType": "string",
          "name": "",
          "type": "string"
        }
      ],
      "stateMutability": "view",
      "type": "function"
    },
    {
      "inputs": [
        {
          "internalType": "uint256",
          "name": "tokenId",
          "type": "uint256"
        }
      ],
      "name": "ownerOf",
      "outputs": [
        {
          "internalType": "address",
          "name": "",
          "type": "address"
        }
      ],
      "stateMutability": "view",
      "type": "function"
    },
    {
      "inputs": [
        {
          "internalType": "address",
          "name": "from",
          "type": "address"
        },
        {
          "internalType": "address",
          "name": "to",
          "type": "address"
        },
        {
          "internalType": "uint256",
          "name": "tokenId",
          "type": "uint256"
        }
      ],
      "name": "safeTransferFrom",
      "outputs": [],
      "stateMutability": "nonpayable",
      "type": "function"
    },
    {
      "inputs": [
        {
          "internalType": "address",
          "name": "from",
          "type": "address"
        },
        {
          "internalType": "address",
          "name": "to",
          "type": "address"
        },
        {
          "internalType": "uint256",
          "name": "tokenId",
          "type": "uint256"
        },
        {
          "internalType": "bytes",
          "name": "_data",
          "type": "bytes"
        }
      ],
      "name": "safeTransferFrom",
      "outputs": [],
      "stateMutability": "nonpayable",
      "type": "function"
    },
    {
      "inputs": [
        {
          "internalType": "address",
          "name": "operator",
          "type": "address"
        },
        {
          "internalType": "bool",
          "name": "approved",
          "type": "bool"
        }
      ],
      "name": "setApprovalForAll",
      "outputs": [],
      "stateMutability": "nonpayable",
      "type": "function"
    },
    {
      "inputs": [
        {
          "internalType": "bytes4",
          "name": "interfaceId",
          "type": "bytes4"
        }
      ],
      "name": "supportsInterface",
      "outputs": [
        {
          "internalType": "bool",
          "name": "",
          "type": "bool"
        }
      ],
      "stateMutability": "view",
      "type": "function"
    },
    {
      "inputs": [],
      "name": "symbol",
      "outputs": [
        {
          "internalType": "string",
          "name": "",
          "type": "string"
        }
      ],
      "stateMutability": "view",
      "type": "function"
    },
    {
      "inputs": [
        {
          "internalType": "uint256",
          "name": "tokenId",
          "type": "uint256"
        }
      ],
      "name": "tokenURI",
      "outputs": [
        {
          "internalType": "string",
          "name": "",
          "type": "string"
        }
      ],
      "stateMutability": "view",
      "type": "function"
    },
    {
      "inputs": [
        {
          "internalType": "address",
          "name": "to",
          "type": "address"
        },
        {
          "internalType": "uint256",
          "name": "tokenId",
          "type": "uint256"
        }
      ],
      "name": "transfer",
      "outputs": [],
      "stateMutability": "nonpayable",
      "type": "function"
    },
    {
      "inputs": [
        {
          "internalType": "address",
          "name": "from",
          "type": "address"
        },
        {
          "internalType": "address",
          "name": "to",
          "type": "address"
        },
        {
          "internalType": "uint256",
          "name": "tokenId",
          "type": "uint256"
        }
      ],
      "name": "transferFrom",
      "outputs": [],
      "stateMutability": "nonpayable",
      "type": "function"
    }
  ],
  "transactionHash": "0xe0ae1e922567272aae2cfccf3ea608d3548750dbb99e6f49f0ef99c4355bd313",
  "args": [
    "0x2c24F078c2fA0f77B58b57bDE6769eE45e7097e9"
  ],
  "solcInputHash": "cbb9ecb8b06366fdde44f103a5c384d9",
  "bytecode": "0x60806040523480156200001157600080fd5b5060405162001b5338038062001b5383398101604081905262000034916200016e565b604080518082018252601081526f4d657461766572736520546f6b656e7360801b6020808301918252835180850190945260048452631351551560e21b9084015281519192916200008891600091620000c8565b5080516200009e906001906020840190620000c8565b5050600880546001600160a01b0319166001600160a01b03939093169290921790915550620001db565b828054620000d6906200019e565b90600052602060002090601f016020900481019282620000fa576000855562000145565b82601f106200011557805160ff191683800117855562000145565b8280016001018555821562000145579182015b828111156200014557825182559160200191906001019062000128565b506200015392915062000157565b5090565b5b8082111562000153576000815560010162000158565b60006020828403121562000180578081fd5b81516001600160a01b038116811462000197578182fd5b9392505050565b600181811c90821680620001b357607f821691505b60208210811415620001d557634e487b7160e01b600052602260045260246000fd5b50919050565b61196880620001eb6000396000f3fe608060405234801561001057600080fd5b506004361061010b5760003560e01c806345576f94116100a2578063a22cb46511610071578063a22cb4651461022a578063a9059cbb1461023d578063b88d4fde14610250578063c87b56dd14610263578063e985e9c5146102765761010b565b806345576f94146101e95780636352211e146101fc57806370a082311461020f57806395d89b41146102225761010b565b8063202e3740116100de578063202e37401461018d5780632037fd9f146101a257806323b872dd146101c357806342842e0e146101d65761010b565b806301ffc9a71461011057806306fdde0314610138578063081812fc1461014d578063095ea7b314610178575b600080fd5b61012361011e3660046115a7565b6102b2565b60405190151581526020015b60405180910390f35b610140610306565b60405161012f9190611748565b61016061015b366004611625565b610398565b6040516001600160a01b03909116815260200161012f565b61018b61018636600461157e565b610425565b005b61019561053b565b60405161012f91906116d5565b6101b56101b03660046115df565b6106b9565b60405190815260200161012f565b61018b6101d1366004611490565b610701565b61018b6101e4366004611490565b610732565b6101b56101f73660046115df565b61074d565b61016061020a366004611625565b61077e565b6101b561021d366004611444565b6107f5565b61014061087c565b61018b610238366004611544565b61088b565b61018b61024b36600461157e565b61095d565b61018b61025e3660046114cb565b61096c565b610140610271366004611625565b6109a4565b61012361028436600461145e565b6001600160a01b03918216600090815260056020908152604080832093909416825291909152205460ff1690565b60006001600160e01b031982166380ac58cd60e01b14806102e357506001600160e01b03198216635b5e139f60e01b145b806102fe57506301ffc9a760e01b6001600160e01b03198316145b90505b919050565b6060600080546103159061186d565b80601f01602080910402602001604051908101604052809291908181526020018280546103419061186d565b801561038e5780601f106103635761010080835404028352916020019161038e565b820191906000526020600020905b81548152906001019060200180831161037157829003601f168201915b5050505050905090565b60006103a382610b1c565b6104095760405162461bcd60e51b815260206004820152602c60248201527f4552433732313a20617070726f76656420717565727920666f72206e6f6e657860448201526b34b9ba32b73a103a37b5b2b760a11b60648201526084015b60405180910390fd5b506000908152600460205260409020546001600160a01b031690565b60006104308261077e565b9050806001600160a01b0316836001600160a01b0316141561049e5760405162461bcd60e51b815260206004820152602160248201527f4552433732313a20617070726f76616c20746f2063757272656e74206f776e656044820152603960f91b6064820152608401610400565b336001600160a01b03821614806104ba57506104ba8133610284565b61052c5760405162461bcd60e51b815260206004820152603860248201527f4552433732313a20617070726f76652063616c6c6572206973206e6f74206f7760448201527f6e6572206e6f7220617070726f76656420666f7220616c6c00000000000000006064820152608401610400565b6105368383610b39565b505050565b6060600061054860075490565b905060008060005b83811015610596573361056761020a8360016117fe565b6001600160a01b03161415610584576105816001846117fe565b92505b8061058e816118a8565b915050610550565b5060008267ffffffffffffffff8111156105c057634e487b7160e01b600052604160045260246000fd5b60405190808252806020026020018201604052801561060657816020015b6040805180820190915260008152606060208201528152602001906001900390816105de5790505b50905060005b848110156106b0573361062361020a8360016117fe565b6001600160a01b0316141561069e57600061063f8260016117fe565b9050600061064c826109a4565b905060405180604001604052808381526020018281525084868151811061068357634e487b7160e01b600052603260045260246000fd5b60209081029190910101526106996001866117fe565b945050505b806106a8816118a8565b91505061060c565b50935050505090565b60006106c9600780546001019055565b60006106d460075490565b90506106e03382610ba7565b6106ea8184610cda565b6008546102fe906001600160a01b0316600161088b565b61070b3382610d65565b6107275760405162461bcd60e51b8152600401610400906117ad565b610536838383610e4b565b6105368383836040518060200160405280600081525061096c565b600061075d600780546001019055565b600061076860075490565b90506107743382610ba7565b6102fe8184610cda565b6000818152600260205260408120546001600160a01b0316806102fe5760405162461bcd60e51b815260206004820152602960248201527f4552433732313a206f776e657220717565727920666f72206e6f6e657869737460448201526832b73a103a37b5b2b760b91b6064820152608401610400565b60006001600160a01b0382166108605760405162461bcd60e51b815260206004820152602a60248201527f4552433732313a2062616c616e636520717565727920666f7220746865207a65604482015269726f206164647265737360b01b6064820152608401610400565b506001600160a01b031660009081526003602052604090205490565b6060600180546103159061186d565b6001600160a01b0382163314156108e45760405162461bcd60e51b815260206004820152601960248201527f4552433732313a20617070726f766520746f2063616c6c6572000000000000006044820152606401610400565b3360008181526005602090815260408083206001600160a01b0387168085529252909120805460ff1916841515179055906001600160a01b03167f17307eab39ab6107e8899845ad3d59bd9653f200f220920489ca2b5937696c3183604051610951911515815260200190565b60405180910390a35050565b610968338383610732565b5050565b6109763383610d65565b6109925760405162461bcd60e51b8152600401610400906117ad565b61099e84848484610feb565b50505050565b60606109af82610b1c565b610a155760405162461bcd60e51b815260206004820152603160248201527f45524337323155524953746f726167653a2055524920717565727920666f72206044820152703737b732bc34b9ba32b73a103a37b5b2b760791b6064820152608401610400565b60008281526006602052604081208054610a2e9061186d565b80601f0160208091040260200160405190810160405280929190818152602001828054610a5a9061186d565b8015610aa75780601f10610a7c57610100808354040283529160200191610aa7565b820191906000526020600020905b815481529060010190602001808311610a8a57829003601f168201915b505050505090506000610ac560408051602081019091526000815290565b9050805160001415610ad957509050610301565b815115610b0b578082604051602001610af3929190611669565b60405160208183030381529060405292505050610301565b610b148461101e565b949350505050565b6000908152600260205260409020546001600160a01b0316151590565b600081815260046020526040902080546001600160a01b0319166001600160a01b0384169081179091558190610b6e8261077e565b6001600160a01b03167f8c5be1e5ebec7d5bd14f71427d1e84f3dd0314c0f7b2291e5b200ac8c7c3b92560405160405180910390a45050565b6001600160a01b038216610bfd5760405162461bcd60e51b815260206004820181905260248201527f4552433732313a206d696e7420746f20746865207a65726f20616464726573736044820152606401610400565b610c0681610b1c565b15610c535760405162461bcd60e51b815260206004820152601c60248201527f4552433732313a20746f6b656e20616c7265616479206d696e746564000000006044820152606401610400565b6001600160a01b0382166000908152600360205260408120805460019290610c7c9084906117fe565b909155505060008181526002602052604080822080546001600160a01b0319166001600160a01b03861690811790915590518392907fddf252ad1be2c89b69c2b068fc378daa952ba7f163c4a11628f55a4df523b3ef908290a45050565b610ce382610b1c565b610d465760405162461bcd60e51b815260206004820152602e60248201527f45524337323155524953746f726167653a2055524920736574206f66206e6f6e60448201526d32bc34b9ba32b73a103a37b5b2b760911b6064820152608401610400565b600082815260066020908152604090912082516105369284019061131e565b6000610d7082610b1c565b610dd15760405162461bcd60e51b815260206004820152602c60248201527f4552433732313a206f70657261746f7220717565727920666f72206e6f6e657860448201526b34b9ba32b73a103a37b5b2b760a11b6064820152608401610400565b6000610ddc8361077e565b9050806001600160a01b0316846001600160a01b03161480610e175750836001600160a01b0316610e0c84610398565b6001600160a01b0316145b80610b1457506001600160a01b0380821660009081526005602090815260408083209388168352929052205460ff16610b14565b826001600160a01b0316610e5e8261077e565b6001600160a01b031614610ec65760405162461bcd60e51b815260206004820152602960248201527f4552433732313a207472616e73666572206f6620746f6b656e2074686174206960448201526839903737ba1037bbb760b91b6064820152608401610400565b6001600160a01b038216610f285760405162461bcd60e51b8152602060048201526024808201527f4552433732313a207472616e7366657220746f20746865207a65726f206164646044820152637265737360e01b6064820152608401610400565b610f33600082610b39565b6001600160a01b0383166000908152600360205260408120805460019290610f5c90849061182a565b90915550506001600160a01b0382166000908152600360205260408120805460019290610f8a9084906117fe565b909155505060008181526002602052604080822080546001600160a01b0319166001600160a01b0386811691821790925591518493918716917fddf252ad1be2c89b69c2b068fc378daa952ba7f163c4a11628f55a4df523b3ef91a4505050565b610ff6848484610e4b565b611002848484846110f6565b61099e5760405162461bcd60e51b81526004016104009061175b565b606061102982610b1c565b61108d5760405162461bcd60e51b815260206004820152602f60248201527f4552433732314d657461646174613a2055524920717565727920666f72206e6f60448201526e3732bc34b9ba32b73a103a37b5b2b760891b6064820152608401610400565b60006110a460408051602081019091526000815290565b905060008151116110c457604051806020016040528060008152506110ef565b806110ce84611203565b6040516020016110df929190611669565b6040516020818303038152906040525b9392505050565b60006001600160a01b0384163b156111f857604051630a85bd0160e11b81526001600160a01b0385169063150b7a029061113a903390899088908890600401611698565b602060405180830381600087803b15801561115457600080fd5b505af1925050508015611184575060408051601f3d908101601f19168201909252611181918101906115c3565b60015b6111de573d8080156111b2576040519150601f19603f3d011682016040523d82523d6000602084013e6111b7565b606091505b5080516111d65760405162461bcd60e51b81526004016104009061175b565b805181602001fd5b6001600160e01b031916630a85bd0160e11b149050610b14565b506001949350505050565b60608161122857506040805180820190915260018152600360fc1b6020820152610301565b8160005b8115611252578061123c816118a8565b915061124b9050600a83611816565b915061122c565b60008167ffffffffffffffff81111561127b57634e487b7160e01b600052604160045260246000fd5b6040519080825280601f01601f1916602001820160405280156112a5576020820181803683370190505b5090505b8415610b14576112ba60018361182a565b91506112c7600a866118c3565b6112d29060306117fe565b60f81b8183815181106112f557634e487b7160e01b600052603260045260246000fd5b60200101906001600160f81b031916908160001a905350611317600a86611816565b94506112a9565b82805461132a9061186d565b90600052602060002090601f01602090048101928261134c5760008555611392565b82601f1061136557805160ff1916838001178555611392565b82800160010185558215611392579182015b82811115611392578251825591602001919060010190611377565b5061139e9291506113a2565b5090565b5b8082111561139e57600081556001016113a3565b600067ffffffffffffffff808411156113d2576113d2611903565b604051601f8501601f19908116603f011681019082821181831017156113fa576113fa611903565b8160405280935085815286868601111561141357600080fd5b858560208301376000602087830101525050509392505050565b80356001600160a01b038116811461030157600080fd5b600060208284031215611455578081fd5b6110ef8261142d565b60008060408385031215611470578081fd5b6114798361142d565b91506114876020840161142d565b90509250929050565b6000806000606084860312156114a4578081fd5b6114ad8461142d565b92506114bb6020850161142d565b9150604084013590509250925092565b600080600080608085870312156114e0578081fd5b6114e98561142d565b93506114f76020860161142d565b925060408501359150606085013567ffffffffffffffff811115611519578182fd5b8501601f81018713611529578182fd5b611538878235602084016113b7565b91505092959194509250565b60008060408385031215611556578182fd5b61155f8361142d565b915060208301358015158114611573578182fd5b809150509250929050565b60008060408385031215611590578182fd5b6115998361142d565b946020939093013593505050565b6000602082840312156115b8578081fd5b81356110ef81611919565b6000602082840312156115d4578081fd5b81516110ef81611919565b6000602082840312156115f0578081fd5b813567ffffffffffffffff811115611606578182fd5b8201601f81018413611616578182fd5b610b14848235602084016113b7565b600060208284031215611636578081fd5b5035919050565b60008151808452611655816020860160208601611841565b601f01601f19169290920160200192915050565b6000835161167b818460208801611841565b83519083019061168f818360208801611841565b01949350505050565b6001600160a01b03858116825284166020820152604081018390526080606082018190526000906116cb9083018461163d565b9695505050505050565b60006020808301818452808551808352604092508286019150828160051b870101848801865b8381101561173a57888303603f190185528151805184528701518784018790526117278785018261163d565b95880195935050908601906001016116fb565b509098975050505050505050565b6000602082526110ef602083018461163d565b60208082526032908201527f4552433732313a207472616e7366657220746f206e6f6e20455243373231526560408201527131b2b4bb32b91034b6b83632b6b2b73a32b960711b606082015260800190565b60208082526031908201527f4552433732313a207472616e736665722063616c6c6572206973206e6f74206f6040820152701ddb995c881b9bdc88185c1c1c9bdd9959607a1b606082015260800190565b60008219821115611811576118116118d7565b500190565b600082611825576118256118ed565b500490565b60008282101561183c5761183c6118d7565b500390565b60005b8381101561185c578181015183820152602001611844565b8381111561099e5750506000910152565b600181811c9082168061188157607f821691505b602082108114156118a257634e487b7160e01b600052602260045260246000fd5b50919050565b60006000198214156118bc576118bc6118d7565b5060010190565b6000826118d2576118d26118ed565b500690565b634e487b7160e01b600052601160045260246000fd5b634e487b7160e01b600052601260045260246000fd5b634e487b7160e01b600052604160045260246000fd5b6001600160e01b03198116811461192f57600080fd5b5056fea26469706673582212205c1035d46b057e89c33359b52322195717ee344492f192630d699fc1370e6a5d64736f6c63430008030033",
  "devdoc": {
    "kind": "dev",
    "methods": {
      "approve(address,uint256)": {
        "details": "See {IERC721-approve}."
      },
      "balanceOf(address)": {
        "details": "See {IERC721-balanceOf}."
      },
      "getApproved(uint256)": {
        "details": "See {IERC721-getApproved}."
      },
      "isApprovedForAll(address,address)": {
        "details": "See {IERC721-isApprovedForAll}."
      },
      "name()": {
        "details": "See {IERC721Metadata-name}."
      },
      "ownerOf(uint256)": {
        "details": "See {IERC721-ownerOf}."
      },
      "safeTransferFrom(address,address,uint256)": {
        "details": "See {IERC721-safeTransferFrom}."
      },
      "safeTransferFrom(address,address,uint256,bytes)": {
        "details": "See {IERC721-safeTransferFrom}."
      },
      "setApprovalForAll(address,bool)": {
        "details": "See {IERC721-setApprovalForAll}."
      },
      "supportsInterface(bytes4)": {
        "details": "See {IERC165-supportsInterface}."
      },
      "symbol()": {
        "details": "See {IERC721Metadata-symbol}."
      },
      "tokenURI(uint256)": {
        "details": "See {IERC721Metadata-tokenURI}."
      },
      "transferFrom(address,address,uint256)": {
        "details": "See {IERC721-transferFrom}."
      }
    },
    "version": 1
  },
  "userdoc": {
    "kind": "user",
    "methods": {},
    "version": 1
  },
  "storageLayout": {
    "storage": [
      {
        "astId": 818,
        "contract": "contracts/NFT.sol:NFT",
        "label": "_name",
        "offset": 0,
        "slot": "0",
        "type": "t_string_storage"
      },
      {
        "astId": 820,
        "contract": "contracts/NFT.sol:NFT",
        "label": "_symbol",
        "offset": 0,
        "slot": "1",
        "type": "t_string_storage"
      },
      {
        "astId": 824,
        "contract": "contracts/NFT.sol:NFT",
        "label": "_owners",
        "offset": 0,
        "slot": "2",
        "type": "t_mapping(t_uint256,t_address)"
      },
      {
        "astId": 828,
        "contract": "contracts/NFT.sol:NFT",
        "label": "_balances",
        "offset": 0,
        "slot": "3",
        "type": "t_mapping(t_address,t_uint256)"
      },
      {
        "astId": 832,
        "contract": "contracts/NFT.sol:NFT",
        "label": "_tokenApprovals",
        "offset": 0,
        "slot": "4",
        "type": "t_mapping(t_uint256,t_address)"
      },
      {
        "astId": 838,
        "contract": "contracts/NFT.sol:NFT",
        "label": "_operatorApprovals",
        "offset": 0,
        "slot": "5",
        "type": "t_mapping(t_address,t_mapping(t_address,t_bool))"
      },
      {
        "astId": 1755,
        "contract": "contracts/NFT.sol:NFT",
        "label": "_tokenURIs",
        "offset": 0,
        "slot": "6",
        "type": "t_mapping(t_uint256,t_string_storage)"
      },
      {
        "astId": 2856,
        "contract": "contracts/NFT.sol:NFT",
        "label": "_tokenIds",
        "offset": 0,
        "slot": "7",
        "type": "t_struct(Counter)2222_storage"
      },
      {
        "astId": 2858,
        "contract": "contracts/NFT.sol:NFT",
        "label": "contractAddress",
        "offset": 0,
        "slot": "8",
        "type": "t_address"
      }
    ],
    "types": {
      "t_address": {
        "encoding": "inplace",
        "label": "address",
        "numberOfBytes": "20"
      },
      "t_bool": {
        "encoding": "inplace",
        "label": "bool",
        "numberOfBytes": "1"
      },
      "t_mapping(t_address,t_bool)": {
        "encoding": "mapping",
        "key": "t_address",
        "label": "mapping(address => bool)",
        "numberOfBytes": "32",
        "value": "t_bool"
      },
      "t_mapping(t_address,t_mapping(t_address,t_bool))": {
        "encoding": "mapping",
        "key": "t_address",
        "label": "mapping(address => mapping(address => bool))",
        "numberOfBytes": "32",
        "value": "t_mapping(t_address,t_bool)"
      },
      "t_mapping(t_address,t_uint256)": {
        "encoding": "mapping",
        "key": "t_address",
        "label": "mapping(address => uint256)",
        "numberOfBytes": "32",
        "value": "t_uint256"
      },
      "t_mapping(t_uint256,t_address)": {
        "encoding": "mapping",
        "key": "t_uint256",
        "label": "mapping(uint256 => address)",
        "numberOfBytes": "32",
        "value": "t_address"
      },
      "t_mapping(t_uint256,t_string_storage)": {
        "encoding": "mapping",
        "key": "t_uint256",
        "label": "mapping(uint256 => string)",
        "numberOfBytes": "32",
        "value": "t_string_storage"
      },
      "t_string_storage": {
        "encoding": "bytes",
        "label": "string",
        "numberOfBytes": "32"
      },
      "t_struct(Counter)2222_storage": {
        "encoding": "inplace",
        "label": "struct Counters.Counter",
        "members": [
          {
            "astId": 2221,
            "contract": "contracts/NFT.sol:NFT",
            "label": "_value",
            "offset": 0,
            "slot": "0",
            "type": "t_uint256"
          }
        ],
        "numberOfBytes": "32"
      },
      "t_uint256": {
        "encoding": "inplace",
        "label": "uint256",
        "numberOfBytes": "32"
      }
    }
  }
}